{
  "_format": "hh-sol-artifact-1",
  "contractName": "RamaContract",
  "sourceName": "contracts/RamaContract.sol",
  "abi": [
    {
      "inputs": [
        {
          "internalType": "address",
          "name": "tokenAddress",
          "type": "address"
        }
      ],
      "stateMutability": "nonpayable",
      "type": "constructor"
    },
    {
      "anonymous": false,
      "inputs": [
        {
          "indexed": true,
          "internalType": "address",
          "name": "previousOwner",
          "type": "address"
        },
        {
          "indexed": true,
          "internalType": "address",
          "name": "newOwner",
          "type": "address"
        }
      ],
      "name": "OwnershipTransferred",
      "type": "event"
    },
    {
      "inputs": [
        {
          "internalType": "bytes32",
          "name": "filmId",
          "type": "bytes32"
        },
        {
          "internalType": "uint256",
          "name": "targetFund",
          "type": "uint256"
        },
        {
          "internalType": "address",
          "name": "filmOwner",
          "type": "address"
        }
      ],
      "name": "addProject",
      "outputs": [],
      "stateMutability": "payable",
      "type": "function"
    },
    {
      "inputs": [
        {
          "internalType": "bytes32",
          "name": "filmId",
          "type": "bytes32"
        }
      ],
      "name": "fundProject",
      "outputs": [],
      "stateMutability": "payable",
      "type": "function"
    },
    {
      "inputs": [],
      "name": "getAllProjectIds",
      "outputs": [
        {
          "internalType": "bytes32[]",
          "name": "",
          "type": "bytes32[]"
        }
      ],
      "stateMutability": "view",
      "type": "function"
    },
    {
      "inputs": [
        {
          "internalType": "bytes32",
          "name": "filmId",
          "type": "bytes32"
        }
      ],
      "name": "getFundOfUserOnAProject",
      "outputs": [
        {
          "components": [
            {
              "internalType": "uint256",
              "name": "userFund",
              "type": "uint256"
            },
            {
              "internalType": "uint256",
              "name": "yieldGenerated",
              "type": "uint256"
            }
          ],
          "internalType": "struct Film.UserFundDetails",
          "name": "",
          "type": "tuple"
        }
      ],
      "stateMutability": "view",
      "type": "function"
    },
    {
      "inputs": [
        {
          "internalType": "bytes32",
          "name": "filmId",
          "type": "bytes32"
        }
      ],
      "name": "getFunds",
      "outputs": [
        {
          "components": [
            {
              "internalType": "uint256",
              "name": "amount",
              "type": "uint256"
            },
            {
              "internalType": "address",
              "name": "funder",
              "type": "address"
            },
            {
              "internalType": "uint256",
              "name": "startTime",
              "type": "uint256"
            },
            {
              "internalType": "uint256",
              "name": "yieldGenerated",
              "type": "uint256"
            }
          ],
          "internalType": "struct Film.Fund[]",
          "name": "",
          "type": "tuple[]"
        }
      ],
      "stateMutability": "view",
      "type": "function"
    },
    {
      "inputs": [
        {
          "internalType": "bytes32",
          "name": "filmId",
          "type": "bytes32"
        }
      ],
      "name": "getProjectById",
      "outputs": [
        {
          "internalType": "contract Film",
          "name": "",
          "type": "address"
        }
      ],
      "stateMutability": "view",
      "type": "function"
    },
    {
      "inputs": [
        {
          "internalType": "bytes32",
          "name": "filmId",
          "type": "bytes32"
        }
      ],
      "name": "getProjectFundDetails",
      "outputs": [
        {
          "components": [
            {
              "internalType": "uint256",
              "name": "targetFund",
              "type": "uint256"
            },
            {
              "internalType": "uint256",
              "name": "fundedSoFar",
              "type": "uint256"
            }
          ],
          "internalType": "struct Film.FilmFundDetails",
          "name": "",
          "type": "tuple"
        }
      ],
      "stateMutability": "view",
      "type": "function"
    },
    {
      "inputs": [],
      "name": "owner",
      "outputs": [
        {
          "internalType": "address",
          "name": "",
          "type": "address"
        }
      ],
      "stateMutability": "view",
      "type": "function"
    },
    {
      "inputs": [],
      "name": "renounceOwnership",
      "outputs": [],
      "stateMutability": "nonpayable",
      "type": "function"
    },
    {
      "inputs": [
        {
          "internalType": "address",
          "name": "newOwner",
          "type": "address"
        }
      ],
      "name": "transferOwnership",
      "outputs": [],
      "stateMutability": "nonpayable",
      "type": "function"
    }
  ],
  "bytecode": "0x608060405234801561001057600080fd5b5060405161186738038061186783398101604081905261002f916100af565b6100383361005d565b600480546001600160a01b0319166001600160a01b03929092169190911790556100dd565b600380546001600160a01b038381166001600160a01b0319831681179093556040519116919082907f8be0079c531659141344cd1fd0a4f28419497f9722a3daafe3b4186f6b6457e090600090a35050565b6000602082840312156100c0578081fd5b81516001600160a01b03811681146100d6578182fd5b9392505050565b61177b806100ec6000396000f3fe6080604052600436106100905760003560e01c80634e1e4e14116100595780634e1e4e14146101635780635030375314610183578063715018a6146101965780638da5cb5b146101ab578063f2fde38b146101c957600080fd5b80627e59c81461009557806316d125f1146100d25780634a039b89146100ff5780634a83b2261461012c5780634ac6476614610141575b600080fd5b3480156100a157600080fd5b506100b56100b0366004610a83565b6101e9565b6040516001600160a01b0390911681526020015b60405180910390f35b3480156100de57600080fd5b506100f26100ed366004610a83565b6101fa565b6040516100c99190610b32565b34801561010b57600080fd5b5061011f61011a366004610a83565b6102d0565b6040516100c99190610bd4565b61013f61013a366004610a83565b6102fb565b005b34801561014d57600080fd5b506101566103d2565b6040516100c99190610aee565b34801561016f57600080fd5b5061011f61017e366004610a83565b6103e1565b61013f610191366004610a9b565b6103ff565b3480156101a257600080fd5b5061013f610434565b3480156101b757600080fd5b506003546001600160a01b03166100b5565b3480156101d557600080fd5b5061013f6101e4366004610960565b61046a565b60006101f482610505565b92915050565b60606102058261056e565b1561029157600082815260026020526040808220548151634d9b373560e01b815291516001600160a01b0390911692634d9b37359260048082019391829003018186803b15801561025557600080fd5b505afa158015610269573d6000803e3d6000fd5b505050506040513d6000823e601f3d908101601f191682016040526101f4919081019061097c565b60405162461bcd60e51b815260206004820152600f60248201526e125b9d985b1a59081c995c5d595cdd608a1b60448201526064015b60405180910390fd5b60408051808201909152600080825260208201526102ed8261056e565b15610291576101f4826105d3565b6000610308823433610678565b90508015610399576004805460405163a9059cbb60e01b815233928101929092523460248301526001600160a01b03169063a9059cbb90604401602060405180830381600087803b15801561035c57600080fd5b505af1158015610370573d6000803e3d6000fd5b505050506040513d601f19601f820116820180604052508101906103949190610a63565b505050565b60405162461bcd60e51b815260206004820152600e60248201526d155b98589b19481d1bc8199d5b9960921b60448201526064016102c7565b60606103dc61070f565b905090565b60408051808201909152600080825260208201526101f48233610767565b6003546001600160a01b031633146104295760405162461bcd60e51b81526004016102c790610b9f565b610394838383610812565b6003546001600160a01b0316331461045e5760405162461bcd60e51b81526004016102c790610b9f565b61046860006108b3565b565b6003546001600160a01b031633146104945760405162461bcd60e51b81526004016102c790610b9f565b6001600160a01b0381166104f95760405162461bcd60e51b815260206004820152602660248201527f4f776e61626c653a206e6577206f776e657220697320746865207a65726f206160448201526564647265737360d01b60648201526084016102c7565b610502816108b3565b50565b60006105108261056e565b6105525760405162461bcd60e51b8152602060048201526013602482015272119a5b1b48191bd95cc81b9bdd08195e1a5cdd606a1b60448201526064016102c7565b506000908152600260205260409020546001600160a01b031690565b6000805b6001548110156105ca57826001828154811061059e57634e487b7160e01b600052603260045260246000fd5b906000526020600020015414156105b85750600192915050565b806105c281610c45565b915050610572565b50600092915050565b60408051808201909152600080825260208201526105f08261056e565b156102915760008281526002602052604090819020548151630461a46160e31b815282516001600160a01b039092169263230d230892600480840193829003018186803b15801561064057600080fd5b505afa158015610654573d6000803e3d6000fd5b505050506040513d601f19601f820116820180604052508101906101f49190610ad3565b60006106838461056e565b15610704576000848152600260205260409081902054905163eee9239560e01b8152600481018590526001600160a01b0384811660248301529091169063eee9239590604401600060405180830381600087803b1580156106e357600080fd5b505af11580156106f7573d6000803e3d6000fd5b5050505060019050610708565b5060005b9392505050565b6060600180548060200260200160405190810160405280929190818152602001828054801561075d57602002820191906000526020600020905b815481526020019060010190808311610749575b5050505050905090565b60408051808201909152600080825260208201526107848361056e565b156102915760008381526002602052604090819020549051631ea63cf960e11b81526001600160a01b03848116600483015290911690633d4c79f290602401604080518083038186803b1580156107da57600080fd5b505afa1580156107ee573d6000803e3d6000fd5b505050506040513d601f19601f820116820180604052508101906107089190610ad3565b818160405161082090610905565b9182526001600160a01b03166020820152604001604051809103906000f080158015610850573d6000803e3d6000fd5b50600084815260026020526040812080546001600160a01b0319166001600160a01b03939093169290921790915560018054808201825591527fb10e2d527612073b26eecdfd717e6a320cf44b4afac2b0732d9fcbe2b7fa0cf601929092555050565b600380546001600160a01b038381166001600160a01b0319831681179093556040519116919082907f8be0079c531659141344cd1fd0a4f28419497f9722a3daafe3b4186f6b6457e090600090a35050565b610aae80610c9883390190565b600060408284031215610923578081fd5b6040516040810181811067ffffffffffffffff8211171561094657610946610c6c565b604052825181526020928301519281019290925250919050565b600060208284031215610971578081fd5b813561070881610c82565b6000602080838503121561098e578182fd5b825167ffffffffffffffff808211156109a5578384fd5b818501915085601f8301126109b8578384fd5b8151818111156109ca576109ca610c6c565b6109d8848260051b01610c14565b8181528481019250838501600783901b850186018910156109f7578687fd5b8694505b82851015610a5757608080828b031215610a13578788fd5b610a1b610beb565b8251815287830151610a2c81610c82565b81890152604083810151908201526060808401519082015285526001959095019493860193016109fb565b50979650505050505050565b600060208284031215610a74578081fd5b81518015158114610708578182fd5b600060208284031215610a94578081fd5b5035919050565b600080600060608486031215610aaf578182fd5b83359250602084013591506040840135610ac881610c82565b809150509250925092565b600060408284031215610ae4578081fd5b6107088383610912565b6020808252825182820181905260009190848201906040850190845b81811015610b2657835183529284019291840191600101610b0a565b50909695505050505050565b602080825282518282018190526000919060409081850190868401855b82811015610b9257815180518552868101516001600160a01b03168786015285810151868601526060908101519085015260809093019290850190600101610b4f565b5091979650505050505050565b6020808252818101527f4f776e61626c653a2063616c6c6572206973206e6f7420746865206f776e6572604082015260600190565b8151815260208083015190820152604081016101f4565b6040516080810167ffffffffffffffff81118282101715610c0e57610c0e610c6c565b60405290565b604051601f8201601f1916810167ffffffffffffffff81118282101715610c3d57610c3d610c6c565b604052919050565b6000600019821415610c6557634e487b7160e01b81526011600452602481fd5b5060010190565b634e487b7160e01b600052604160045260246000fd5b6001600160a01b038116811461050257600080fdfe6080604052600160025534801561001557600080fd5b50604051610aae380380610aae83398101604081905261003491610065565b6000918255600380546001600160a01b0319166001600160a01b0392909216919091179055600155436004556100a0565b60008060408385031215610077578182fd5b825160208401519092506001600160a01b0381168114610095578182fd5b809150509250929050565b6109ff806100af6000396000f3fe608060405234801561001057600080fd5b50600436106100f55760003560e01c8063494c3e901161009757806380a3301b1161006657806380a3301b146102145780639b46b2da14610227578063d5bab70c14610252578063eee923951461025b57600080fd5b8063494c3e90146101a85780634d9b3735146101bb57806375d6cbdf146101d05780637b8e8895146101d957600080fd5b806326e0b25f116100d357806326e0b25f1461016d5780632d56bbf5146101845780633d4c79f21461018d578063492a42a2146101a057600080fd5b806306e31858146100fa5780631e87eb3214610122578063230d230814610137575b600080fd5b61010d610108366004610858565b61026e565b60405190151581526020015b60405180910390f35b610135610130366004610858565b6102ee565b005b604080518082018252600080825260209182018190528251808401909352548252600154908201525b6040516101199190610952565b61017660005481565b604051908152602001610119565b61017660045481565b61016061019b366004610858565b61030e565b6101766103b9565b6101766101b6366004610858565b6103d0565b6101c361045d565b60405161011991906108bc565b61017660025481565b6101ec6101e7366004610879565b6104e7565b604080519485526001600160a01b039093166020850152918301526060820152608001610119565b610176610222366004610879565b61052a565b60035461023a906001600160a01b031681565b6040516001600160a01b039091168152602001610119565b61017660015481565b610135610269366004610891565b610572565b6000805b6005548110156102e557826001600160a01b0316600582815481106102a757634e487b7160e01b600052603260045260246000fd5b60009182526020909120600160049092020101546001600160a01b031614156102d35750600192915050565b806102dd81610998565b915050610272565b50600092915050565b60006102f9826103d0565b9050801561030a5761030a81610717565b5050565b6040805180820190915260008082526020820152600061032d8361026e565b90508015610398576000610340846103d0565b905060405180604001604052806005838154811061036e57634e487b7160e01b600052603260045260246000fd5b906000526020600020906004020160000154815260200161038e8361052a565b9052949350505050565b60405162461bcd60e51b81526004016103b090610929565b60405180910390fd5b60006001546000546103cb9190610981565b905090565b6000805b60055481101561044457826001600160a01b03166005828154811061040957634e487b7160e01b600052603260045260246000fd5b60009182526020909120600160049092020101546001600160a01b031614156104325792915050565b8061043c81610998565b9150506103d4565b5060405162461bcd60e51b81526004016103b090610929565b60606005805480602002602001604051908101604052809291908181526020016000905b828210156104de5760008481526020908190206040805160808101825260048602909201805483526001808201546001600160a01b0316848601526002820154928401929092526003015460608301529083529092019101610481565b50505050905090565b600581815481106104f757600080fd5b600091825260209091206004909102018054600182015460028301546003909301549193506001600160a01b0316919084565b60006004546005838154811061055057634e487b7160e01b600052603260045260246000fd5b90600052602060002090600402016002015461056c9190610981565b92915050565b61057a6103b9565b8211156105b75760405162461bcd60e51b815260206004820152600b60248201526a115e18d95cdcc8199d5b9960aa1b60448201526064016103b0565b60006105c28261026e565b905080156106035760405162461bcd60e51b815260206004820152600e60248201526d105b1c9958591e48199d5b99195960921b60448201526064016103b0565b604080516080810182528481526001600160a01b038416602082015243918101919091526000606082015260015461063c908590610969565b600190815560058054918201815560005281517f036b6384b5eca791c62761152d0c79bb0604c104a5fb6f4eb0703f3154bb3db060049092029182015560208201517f036b6384b5eca791c62761152d0c79bb0604c104a5fb6f4eb0703f3154bb3db1820180546001600160a01b0319166001600160a01b0390921691909117905560408201517f036b6384b5eca791c62761152d0c79bb0604c104a5fb6f4eb0703f3154bb3db28201556060909101517f036b6384b5eca791c62761152d0c79bb0604c104a5fb6f4eb0703f3154bb3db390910155505050565b60055481106107385760405162461bcd60e51b81526004016103b090610929565b6005805461074890600190610981565b8154811061076657634e487b7160e01b600052603260045260246000fd5b90600052602060002090600402016005828154811061079557634e487b7160e01b600052603260045260246000fd5b60009182526020909120825460049092020190815560018083015490820180546001600160a01b0319166001600160a01b0390921691909117905560028083015490820155600391820154910155600580548061080257634e487b7160e01b600052603160045260246000fd5b6000828152602081206004600019909301928302018181556001810180546001600160a01b03191690556002810182905560030155905550565b80356001600160a01b038116811461085357600080fd5b919050565b600060208284031215610869578081fd5b6108728261083c565b9392505050565b60006020828403121561088a578081fd5b5035919050565b600080604083850312156108a3578081fd5b823591506108b36020840161083c565b90509250929050565b602080825282518282018190526000919060409081850190868401855b8281101561091c57815180518552868101516001600160a01b031687860152858101518686015260609081015190850152608090930192908501906001016108d9565b5091979650505050505050565b6020808252600f908201526e125b9d985b1a59081c995c5d595cdd608a1b604082015260600190565b81518152602080830151908201526040810161056c565b6000821982111561097c5761097c6109b3565b500190565b600082821015610993576109936109b3565b500390565b60006000198214156109ac576109ac6109b3565b5060010190565b634e487b7160e01b600052601160045260246000fdfea26469706673582212207253504a3f4e016e93fc9cd9cf04fad7c071189ce58b3809aea18e78b9215ba364736f6c63430008040033a2646970667358221220ed9f430c23e29e6d70713ad93094168abd0cb73c34ba4179d30f20e83ab61f8964736f6c63430008040033",
  "linkReferences": {},
  "deployedLinkReferences": {}
}