{
  "_format": "hh-sol-artifact-1",
  "contractName": "RamaContract",
  "sourceName": "contracts/RamaContract.sol",
  "abi": [
    {
      "inputs": [
        {
          "internalType": "address",
          "name": "tokenAddress",
          "type": "address"
        }
      ],
      "stateMutability": "nonpayable",
      "type": "constructor"
    },
    {
      "anonymous": false,
      "inputs": [
        {
          "indexed": true,
          "internalType": "address",
          "name": "previousOwner",
          "type": "address"
        },
        {
          "indexed": true,
          "internalType": "address",
          "name": "newOwner",
          "type": "address"
        }
      ],
      "name": "OwnershipTransferred",
      "type": "event"
    },
    {
      "inputs": [
        {
          "internalType": "bytes32",
          "name": "filmId",
          "type": "bytes32"
        },
        {
          "internalType": "uint256",
          "name": "targetFund",
          "type": "uint256"
        },
        {
          "internalType": "address",
          "name": "filmOwner",
          "type": "address"
        }
      ],
      "name": "addFilm",
      "outputs": [],
      "stateMutability": "nonpayable",
      "type": "function"
    },
    {
      "inputs": [
        {
          "internalType": "bytes32",
          "name": "filmId",
          "type": "bytes32"
        },
        {
          "internalType": "uint256",
          "name": "targetFund",
          "type": "uint256"
        },
        {
          "internalType": "address",
          "name": "filmOwner",
          "type": "address"
        }
      ],
      "name": "addProject",
      "outputs": [],
      "stateMutability": "payable",
      "type": "function"
    },
    {
      "inputs": [
        {
          "internalType": "bytes32",
          "name": "filmId",
          "type": "bytes32"
        }
      ],
      "name": "claimProjectRewards",
      "outputs": [
        {
          "internalType": "uint256",
          "name": "",
          "type": "uint256"
        }
      ],
      "stateMutability": "nonpayable",
      "type": "function"
    },
    {
      "inputs": [
        {
          "internalType": "bytes32",
          "name": "filmId",
          "type": "bytes32"
        },
        {
          "internalType": "address",
          "name": "sender",
          "type": "address"
        }
      ],
      "name": "claimReward",
      "outputs": [
        {
          "internalType": "uint256",
          "name": "",
          "type": "uint256"
        }
      ],
      "stateMutability": "view",
      "type": "function"
    },
    {
      "inputs": [
        {
          "internalType": "bytes32",
          "name": "filmId",
          "type": "bytes32"
        }
      ],
      "name": "doesItemExist",
      "outputs": [
        {
          "internalType": "bool",
          "name": "",
          "type": "bool"
        }
      ],
      "stateMutability": "view",
      "type": "function"
    },
    {
      "inputs": [
        {
          "internalType": "bytes32",
          "name": "filmId",
          "type": "bytes32"
        },
        {
          "internalType": "uint256",
          "name": "value",
          "type": "uint256"
        },
        {
          "internalType": "address",
          "name": "sender",
          "type": "address"
        }
      ],
      "name": "fund",
      "outputs": [
        {
          "internalType": "bool",
          "name": "",
          "type": "bool"
        }
      ],
      "stateMutability": "nonpayable",
      "type": "function"
    },
    {
      "inputs": [
        {
          "internalType": "bytes32",
          "name": "filmId",
          "type": "bytes32"
        }
      ],
      "name": "fundProject",
      "outputs": [],
      "stateMutability": "payable",
      "type": "function"
    },
    {
      "inputs": [],
      "name": "getAllFilmIds",
      "outputs": [
        {
          "internalType": "bytes32[]",
          "name": "",
          "type": "bytes32[]"
        }
      ],
      "stateMutability": "view",
      "type": "function"
    },
    {
      "inputs": [],
      "name": "getAllProjectIds",
      "outputs": [
        {
          "internalType": "bytes32[]",
          "name": "",
          "type": "bytes32[]"
        }
      ],
      "stateMutability": "view",
      "type": "function"
    },
    {
      "inputs": [
        {
          "internalType": "bytes32",
          "name": "filmId",
          "type": "bytes32"
        }
      ],
      "name": "getFilm",
      "outputs": [
        {
          "internalType": "contract Film",
          "name": "",
          "type": "address"
        }
      ],
      "stateMutability": "view",
      "type": "function"
    },
    {
      "inputs": [
        {
          "internalType": "bytes32",
          "name": "filmId",
          "type": "bytes32"
        }
      ],
      "name": "getFilmFundDetails",
      "outputs": [
        {
          "components": [
            {
              "internalType": "uint256",
              "name": "targetFund",
              "type": "uint256"
            },
            {
              "internalType": "uint256",
              "name": "fundedSoFar",
              "type": "uint256"
            }
          ],
          "internalType": "struct Film.FilmFundDetails",
          "name": "",
          "type": "tuple"
        }
      ],
      "stateMutability": "view",
      "type": "function"
    },
    {
      "inputs": [
        {
          "internalType": "bytes32",
          "name": "filmId",
          "type": "bytes32"
        },
        {
          "internalType": "address",
          "name": "sender",
          "type": "address"
        }
      ],
      "name": "getFundOfUser",
      "outputs": [
        {
          "components": [
            {
              "internalType": "uint256",
              "name": "userFund",
              "type": "uint256"
            },
            {
              "internalType": "uint256",
              "name": "filmFundingStartTime",
              "type": "uint256"
            },
            {
              "internalType": "uint256",
              "name": "userFundedTime",
              "type": "uint256"
            }
          ],
          "internalType": "struct Film.UserFundDetails",
          "name": "",
          "type": "tuple"
        }
      ],
      "stateMutability": "view",
      "type": "function"
    },
    {
      "inputs": [
        {
          "internalType": "bytes32",
          "name": "filmId",
          "type": "bytes32"
        }
      ],
      "name": "getFundOfUserOnAProject",
      "outputs": [
        {
          "components": [
            {
              "internalType": "uint256",
              "name": "userFund",
              "type": "uint256"
            },
            {
              "internalType": "uint256",
              "name": "filmFundingStartTime",
              "type": "uint256"
            },
            {
              "internalType": "uint256",
              "name": "userFundedTime",
              "type": "uint256"
            }
          ],
          "internalType": "struct Film.UserFundDetails",
          "name": "",
          "type": "tuple"
        }
      ],
      "stateMutability": "view",
      "type": "function"
    },
    {
      "inputs": [
        {
          "internalType": "bytes32",
          "name": "filmId",
          "type": "bytes32"
        }
      ],
      "name": "getFunds",
      "outputs": [
        {
          "components": [
            {
              "internalType": "uint256",
              "name": "amount",
              "type": "uint256"
            },
            {
              "internalType": "address",
              "name": "funder",
              "type": "address"
            },
            {
              "internalType": "uint256",
              "name": "startTime",
              "type": "uint256"
            },
            {
              "internalType": "bool",
              "name": "isFundsLocked",
              "type": "bool"
            }
          ],
          "internalType": "struct Film.Fund[]",
          "name": "",
          "type": "tuple[]"
        }
      ],
      "stateMutability": "view",
      "type": "function"
    },
    {
      "inputs": [
        {
          "internalType": "bytes32",
          "name": "filmId",
          "type": "bytes32"
        }
      ],
      "name": "getProjectById",
      "outputs": [
        {
          "internalType": "contract Film",
          "name": "",
          "type": "address"
        }
      ],
      "stateMutability": "view",
      "type": "function"
    },
    {
      "inputs": [
        {
          "internalType": "bytes32",
          "name": "filmId",
          "type": "bytes32"
        }
      ],
      "name": "getProjectFundDetails",
      "outputs": [
        {
          "components": [
            {
              "internalType": "uint256",
              "name": "targetFund",
              "type": "uint256"
            },
            {
              "internalType": "uint256",
              "name": "fundedSoFar",
              "type": "uint256"
            }
          ],
          "internalType": "struct Film.FilmFundDetails",
          "name": "",
          "type": "tuple"
        }
      ],
      "stateMutability": "view",
      "type": "function"
    },
    {
      "inputs": [
        {
          "internalType": "address",
          "name": "sender",
          "type": "address"
        }
      ],
      "name": "getUserFundedFilmIds",
      "outputs": [
        {
          "internalType": "bytes32[]",
          "name": "",
          "type": "bytes32[]"
        }
      ],
      "stateMutability": "view",
      "type": "function"
    },
    {
      "inputs": [],
      "name": "getUserFundedProjects",
      "outputs": [
        {
          "internalType": "bytes32[]",
          "name": "",
          "type": "bytes32[]"
        }
      ],
      "stateMutability": "view",
      "type": "function"
    },
    {
      "inputs": [
        {
          "internalType": "bytes32",
          "name": "filmId",
          "type": "bytes32"
        },
        {
          "internalType": "address",
          "name": "sender",
          "type": "address"
        }
      ],
      "name": "lockFund",
      "outputs": [],
      "stateMutability": "nonpayable",
      "type": "function"
    },
    {
      "inputs": [],
      "name": "owner",
      "outputs": [
        {
          "internalType": "address",
          "name": "",
          "type": "address"
        }
      ],
      "stateMutability": "view",
      "type": "function"
    },
    {
      "inputs": [
        {
          "internalType": "bytes32",
          "name": "filmId",
          "type": "bytes32"
        },
        {
          "internalType": "address",
          "name": "sender",
          "type": "address"
        }
      ],
      "name": "removeFund",
      "outputs": [],
      "stateMutability": "nonpayable",
      "type": "function"
    },
    {
      "inputs": [],
      "name": "renounceOwnership",
      "outputs": [],
      "stateMutability": "nonpayable",
      "type": "function"
    },
    {
      "inputs": [
        {
          "internalType": "address",
          "name": "newOwner",
          "type": "address"
        }
      ],
      "name": "transferOwnership",
      "outputs": [],
      "stateMutability": "nonpayable",
      "type": "function"
    }
  ],
  "bytecode": "0x608060405234801561001057600080fd5b506040516122dd3803806122dd83398101604081905261002f916100af565b6100383361005d565b600480546001600160a01b0319166001600160a01b03929092169190911790556100dd565b600380546001600160a01b038381166001600160a01b0319831681179093556040519116919082907f8be0079c531659141344cd1fd0a4f28419497f9722a3daafe3b4186f6b6457e090600090a35050565b6000602082840312156100c0578081fd5b81516001600160a01b03811681146100d6578182fd5b9392505050565b6121f1806100ec6000396000f3fe60806040526004361061013f5760003560e01c8063641a9e9e116100b6578063c637ec901161006f578063c637ec90146103ad578063d9a9f0b6146103c2578063f2fde38b146103e2578063f40d1f3314610402578063f71e075514610422578063f9d0ff061461045057600080fd5b8063641a9e9e14610305578063715018a61461031a5780637159550d1461032f57806378143f951461034f5780638da5cb5b1461036f578063ab05204e1461038d57600080fd5b80634a039b89116101085780634a039b89146102205780634a83b2261461025b5780634ac647661461026e5780634e1e4e141461029057806350303753146102d25780635fb56c57146102e557600080fd5b80627e59c8146101445780630745c8651461018157806313229311146101b157806316d125f1146101d15780633d22ef35146101fe575b600080fd5b34801561015057600080fd5b5061016461015f36600461107e565b610470565b6040516001600160a01b0390911681526020015b60405180910390f35b34801561018d57600080fd5b506101a161019c36600461107e565b610481565b6040519015158152602001610178565b3480156101bd57600080fd5b506101646101cc36600461107e565b6104e6565b3480156101dd57600080fd5b506101f16101ec36600461107e565b610554565b6040516101789190611202565b34801561020a57600080fd5b5061021e610219366004611096565b61062a565b005b34801561022c57600080fd5b5061024061023b36600461107e565b6106a9565b60408051825181526020928301519281019290925201610178565b61021e61026936600461107e565b6106c6565b34801561027a57600080fd5b5061028361079d565b60405161017891906111be565b34801561029c57600080fd5b506102b06102ab36600461107e565b6107ac565b6040805182518152602080840151908201529181015190820152606001610178565b61021e6102e03660046110c5565b6107da565b3480156102f157600080fd5b506102b0610300366004611096565b61080f565b34801561031157600080fd5b506102836108d2565b34801561032657600080fd5b5061021e6108dd565b34801561033b57600080fd5b5061024061034a36600461107e565b610913565b34801561035b57600080fd5b5061021e61036a3660046110c5565b6109aa565b34801561037b57600080fd5b506003546001600160a01b0316610164565b34801561039957600080fd5b5061021e6103a8366004611096565b610a4b565b3480156103b957600080fd5b50610283610a8a565b3480156103ce57600080fd5b506102836103dd366004610f5a565b610ae2565b3480156103ee57600080fd5b5061021e6103fd366004610f5a565b610c7e565b34801561040e57600080fd5b506101a161041d3660046110c5565b610d19565b34801561042e57600080fd5b5061044261043d36600461107e565b610daf565b604051908152602001610178565b34801561045c57600080fd5b5061044261046b366004611096565b610e51565b600061047b826104e6565b92915050565b6000805b6001548110156104dd5782600182815481106104b157634e487b7160e01b600052603260045260246000fd5b906000526020600020015414156104cb5750600192915050565b806104d581611300565b915050610485565b50600092915050565b60006104f182610481565b6105385760405162461bcd60e51b8152602060048201526013602482015272119a5b1b48191bd95cc81b9bdd08195e1a5cdd606a1b60448201526064015b60405180910390fd5b506000908152600260205260409020546001600160a01b031690565b606061055f82610481565b156105eb57600082815260026020526040808220548151634d9b373560e01b815291516001600160a01b0390911692634d9b37359260048082019391829003018186803b1580156105af57600080fd5b505afa1580156105c3573d6000803e3d6000fd5b505050506040513d6000823e601f3d908101601f1916820160405261047b9190810190610f76565b60405162461bcd60e51b815260206004820152600f60248201526e125b9d985b1a59081c995c5d595cdd608a1b604482015260640161052f565b919050565b61063382610481565b156105eb5760008281526002602052604090819020549051630f43f59960e11b81526001600160a01b03838116600483015290911690631e87eb32906024015b600060405180830381600087803b15801561068d57600080fd5b505af11580156106a1573d6000803e3d6000fd5b505050505050565b604080518082019091526000808252602082015261047b82610913565b60006106d3823433610d19565b90508015610764576004805460405163a9059cbb60e01b815233928101929092523460248301526001600160a01b03169063a9059cbb90604401602060405180830381600087803b15801561072757600080fd5b505af115801561073b573d6000803e3d6000fd5b505050506040513d601f19601f8201168201806040525081019061075f9190611064565b505050565b60405162461bcd60e51b815260206004820152600e60248201526d155b98589b19481d1bc8199d5b9960921b604482015260640161052f565b60606107a7610a8a565b905090565b6107d060405180606001604052806000815260200160008152602001600081525090565b61047b823361080f565b6003546001600160a01b031633146108045760405162461bcd60e51b815260040161052f90611271565b61075f8383836109aa565b61083360405180606001604052806000815260200160008152602001600081525090565b61083c83610481565b156105eb5760008381526002602052604090819020549051631ea63cf960e11b81526001600160a01b03848116600483015290911690633d4c79f29060240160606040518083038186803b15801561089357600080fd5b505afa1580156108a7573d6000803e3d6000fd5b505050506040513d601f19601f820116820180604052508101906108cb919061114b565b9392505050565b60606107a733610ae2565b6003546001600160a01b031633146109075760405162461bcd60e51b815260040161052f90611271565b6109116000610eeb565b565b604080518082019091526000808252602082015260008281526002602052604090819020548151630461a46160e31b815282516001600160a01b039092169263230d230892600480840193829003018186803b15801561097257600080fd5b505afa158015610986573d6000803e3d6000fd5b505050506040513d601f19601f8201168201806040525081019061047b91906110fd565b81816040516109b890610f3d565b9182526001600160a01b03166020820152604001604051809103906000f0801580156109e8573d6000803e3d6000fd5b50600084815260026020526040812080546001600160a01b0319166001600160a01b03939093169290921790915560018054808201825591527fb10e2d527612073b26eecdfd717e6a320cf44b4afac2b0732d9fcbe2b7fa0cf601929092555050565b6000828152600260205260409081902054905163198cab2d60e31b81526001600160a01b0383811660048301529091169063cc65596890602401610673565b60606001805480602002602001604051908101604052809291908181526020018280548015610ad857602002820191906000526020600020905b815481526020019060010190808311610ac4575b5050505050905090565b60015460609060009067ffffffffffffffff811115610b1157634e487b7160e01b600052604160045260246000fd5b604051908082528060200260200182016040528015610b3a578160200160208202803683370190505b50905060005b600154811015610c77576002600060018381548110610b6f57634e487b7160e01b600052603260045260246000fd5b6000918252602080832091909101548352820192909252604090810190912054905162dc630b60e31b81526001600160a01b038681166004830152909116906306e318589060240160206040518083038186803b158015610bcf57600080fd5b505afa158015610be3573d6000803e3d6000fd5b505050506040513d601f19601f82011682018060405250810190610c079190611064565b15610c655760018181548110610c2d57634e487b7160e01b600052603260045260246000fd5b9060005260206000200154828281518110610c5857634e487b7160e01b600052603260045260246000fd5b6020026020010181815250505b80610c6f81611300565b915050610b40565b5092915050565b6003546001600160a01b03163314610ca85760405162461bcd60e51b815260040161052f90611271565b6001600160a01b038116610d0d5760405162461bcd60e51b815260206004820152602660248201527f4f776e61626c653a206e6577206f776e657220697320746865207a65726f206160448201526564647265737360d01b606482015260840161052f565b610d1681610eeb565b50565b6000610d2484610481565b15610da5576000848152600260205260409081902054905163eee9239560e01b8152600481018590526001600160a01b0384811660248301529091169063eee9239590604401600060405180830381600087803b158015610d8457600080fd5b505af1158015610d98573d6000803e3d6000fd5b50505050600190506108cb565b5060009392505050565b600080610dbc8333610e51565b6004805460405163a9059cbb60e01b81523392810192909252602482018390529192506001600160a01b039091169063a9059cbb90604401602060405180830381600087803b158015610e0e57600080fd5b505af1158015610e22573d6000803e3d6000fd5b505050506040513d601f19601f82011682018060405250810190610e469190611064565b5061047b8333610a4b565b6000610e5c83610481565b156105eb576000838152600260205260409081902054905163999927df60e01b81526001600160a01b0384811660048301529091169063999927df9060240160206040518083038186803b158015610eb357600080fd5b505afa158015610ec7573d6000803e3d6000fd5b505050506040513d601f19601f820116820180604052508101906108cb91906111a6565b600380546001600160a01b038381166001600160a01b0319831681179093556040519116919082907f8be0079c531659141344cd1fd0a4f28419497f9722a3daafe3b4186f6b6457e090600090a35050565b610e698061135383390190565b8051801515811461062557600080fd5b600060208284031215610f6b578081fd5b81356108cb8161133d565b60006020808385031215610f88578182fd5b825167ffffffffffffffff80821115610f9f578384fd5b818501915085601f830112610fb2578384fd5b815181811115610fc457610fc4611327565b610fd2848260051b016112cf565b8181528481019250838501600783901b85018601891015610ff1578687fd5b8694505b8285101561105857608080828b03121561100d578788fd5b6110156112a6565b82518152878301516110268161133d565b81890152604083810151908201526060611041818501610f4a565b908201528552600195909501949386019301610ff5565b50979650505050505050565b600060208284031215611075578081fd5b6108cb82610f4a565b60006020828403121561108f578081fd5b5035919050565b600080604083850312156110a8578081fd5b8235915060208301356110ba8161133d565b809150509250929050565b6000806000606084860312156110d9578081fd5b833592506020840135915060408401356110f28161133d565b809150509250925092565b60006040828403121561110e578081fd5b6040516040810181811067ffffffffffffffff8211171561113157611131611327565b604052825181526020928301519281019290925250919050565b60006060828403121561115c578081fd5b6040516060810181811067ffffffffffffffff8211171561117f5761117f611327565b80604052508251815260208301516020820152604083015160408201528091505092915050565b6000602082840312156111b7578081fd5b5051919050565b6020808252825182820181905260009190848201906040850190845b818110156111f6578351835292840192918401916001016111da565b50909695505050505050565b602080825282518282018190526000919060409081850190868401855b8281101561126457815180518552868101516001600160a01b03168786015285810151868601526060908101511515908501526080909301929085019060010161121f565b5091979650505050505050565b6020808252818101527f4f776e61626c653a2063616c6c6572206973206e6f7420746865206f776e6572604082015260600190565b6040516080810167ffffffffffffffff811182821017156112c9576112c9611327565b60405290565b604051601f8201601f1916810167ffffffffffffffff811182821017156112f8576112f8611327565b604052919050565b600060001982141561132057634e487b7160e01b81526011600452602481fd5b5060010190565b634e487b7160e01b600052604160045260246000fd5b6001600160a01b0381168114610d1657600080fdfe6080604052600160025561271060055534801561001b57600080fd5b50604051610e69380380610e6983398101604081905261003a9161006b565b6000918255600380546001600160a01b0319166001600160a01b0392909216919091179055600155426004556100a6565b6000806040838503121561007d578182fd5b825160208401519092506001600160a01b038116811461009b578182fd5b809150509250929050565b610db4806100b56000396000f3fe60806040526004361061011f5760003560e01c806354f703f8116100a0578063cc65596811610064578063cc65596814610388578063d5bab70c146103a8578063d602a907146103be578063d7348903146103de578063eee92395146103fe57600080fd5b806354f703f8146102ba57806375d6cbdf146102d05780637b8e8895146102e6578063999927df146103305780639b46b2da1461035057600080fd5b80632d56bbf5116100e75780632d56bbf51461020b5780633d4c79f214610221578063492a42a214610263578063494c3e90146102785780634d9b37351461029857600080fd5b8063068726611461012457806306e31858146101575780631e87eb3214610187578063230d2308146101a957806326e0b25f146101f5575b600080fd5b34801561013057600080fd5b5061014461013f366004610bea565b610411565b6040519081526020015b60405180910390f35b34801561016357600080fd5b50610177610172366004610bea565b610479565b604051901515815260200161014e565b34801561019357600080fd5b506101a76101a2366004610bea565b6104f9565b005b3480156101b557600080fd5b506040805180820182526000808252602091820181905282518084018452905480825260015491830191825283519081529051918101919091520161014e565b34801561020157600080fd5b5061014460005481565b34801561021757600080fd5b5061014460045481565b34801561022d57600080fd5b5061024161023c366004610bea565b610519565b604080518251815260208084015190820152918101519082015260600161014e565b34801561026f57600080fd5b50610144610608565b34801561028457600080fd5b50610144610293366004610bea565b61061f565b3480156102a457600080fd5b506102ad6106ac565b60405161014e9190610c47565b3480156102c657600080fd5b5061014460055481565b3480156102dc57600080fd5b5061014460025481565b3480156102f257600080fd5b50610306610301366004610c04565b61073b565b604080519485526001600160a01b039093166020850152918301521515606082015260800161014e565b34801561033c57600080fd5b5061014461034b366004610bea565b610781565b34801561035c57600080fd5b50600354610370906001600160a01b031681565b6040516001600160a01b03909116815260200161014e565b34801561039457600080fd5b506101a76103a3366004610bea565b61078d565b3480156103b457600080fd5b5061014460015481565b3480156103ca57600080fd5b506101a76103d9366004610c04565b6107e3565b3480156103ea57600080fd5b506101446103f9366004610c04565b610924565b6101a761040c366004610c1c565b6109b2565b60008061041d8361061f565b905061042881610924565b6005546104359190610cf7565b6006828154811061045657634e487b7160e01b600052603260045260246000fd5b9060005260206000209060040201600001546104729190610d17565b9392505050565b6000805b6006548110156104f057826001600160a01b0316600682815481106104b257634e487b7160e01b600052603260045260246000fd5b60009182526020909120600160049092020101546001600160a01b031614156104de5750600192915050565b806104e881610d4d565b91505061047d565b50600092915050565b60006105048261061f565b9050801561051557610515816107e3565b5050565b61053d60405180606001604052806000815260200160008152602001600081525090565b600061054883610479565b905080156105e757600061055b8461061f565b905060405180606001604052806006838154811061058957634e487b7160e01b600052603260045260246000fd5b90600052602060002090600402016000015481526020016004548152602001600683815481106105c957634e487b7160e01b600052603260045260246000fd5b90600052602060002090600402016002015481525092505050919050565b60405162461bcd60e51b81526004016105ff90610cb6565b60405180910390fd5b600060015460005461061a9190610d36565b905090565b6000805b60065481101561069357826001600160a01b03166006828154811061065857634e487b7160e01b600052603260045260246000fd5b60009182526020909120600160049092020101546001600160a01b031614156106815792915050565b8061068b81610d4d565b915050610623565b5060405162461bcd60e51b81526004016105ff90610cb6565b60606006805480602002602001604051908101604052809291908181526020016000905b828210156107325760008481526020908190206040805160808101825260048602909201805483526001808201546001600160a01b0316848601526002820154928401929092526003015460ff161515606083015290835290920191016106d0565b50505050905090565b6006818154811061074b57600080fd5b600091825260209091206004909102018054600182015460028301546003909301549193506001600160a01b0316919060ff1684565b60008061047283610411565b60006107988261061f565b90506001600682815481106107bd57634e487b7160e01b600052603260045260246000fd5b60009182526020909120600490910201600301805460ff19169115159190911790555050565b60065481106108045760405162461bcd60e51b81526004016105ff90610cb6565b6006805461081490600190610d36565b8154811061083257634e487b7160e01b600052603260045260246000fd5b90600052602060002090600402016006828154811061086157634e487b7160e01b600052603260045260246000fd5b60009182526020909120825460049092020190815560018083015490820180546001600160a01b0319166001600160a01b03909216919091179055600280830154908201556003918201549101805460ff909216151560ff1990921691909117905560068054806108e257634e487b7160e01b600052603160045260246000fd5b6000828152602081206004600019909301928302018181556001810180546001600160a01b03191690556002810191909155600301805460ff19169055905550565b60006109616006838154811061094a57634e487b7160e01b600052603260045260246000fd5b906000526020600020906004020160020154610b65565b61096c600454610b65565b6004546006838154811061099057634e487b7160e01b600052603260045260246000fd5b9060005260206000209060040201600201546109ac9190610d36565b92915050565b6109ba610608565b8211156109f75760405162461bcd60e51b815260206004820152600b60248201526a115e18d95cdcc8199d5b9960aa1b60448201526064016105ff565b6000610a0282610479565b90508015610a435760405162461bcd60e51b815260206004820152600e60248201526d105b1c9958591e48199d5b99195960921b60448201526064016105ff565b604080516080810182528481526001600160a01b0384166020820152429181019190915260006060820152600154610a7c908590610cdf565b600190815560068054918201815560005281517ff652222313e28459528d920b65115c16c04f3efc82aaedc97be59f3f377c0d3f60049092029182015560208201517ff652222313e28459528d920b65115c16c04f3efc82aaedc97be59f3f377c0d40820180546001600160a01b0319166001600160a01b0390921691909117905560408201517ff652222313e28459528d920b65115c16c04f3efc82aaedc97be59f3f377c0d418201556060909101517ff652222313e28459528d920b65115c16c04f3efc82aaedc97be59f3f377c0d42909101805460ff1916911515919091179055505050565b610baa81604051602401610b7b91815260200190565b60408051601f198184030181529190526020810180516001600160e01b031663f5b1bba960e01b179052610bad565b50565b80516a636f6e736f6c652e6c6f67602083016000808483855afa5050505050565b80356001600160a01b0381168114610be557600080fd5b919050565b600060208284031215610bfb578081fd5b61047282610bce565b600060208284031215610c15578081fd5b5035919050565b60008060408385031215610c2e578081fd5b82359150610c3e60208401610bce565b90509250929050565b602080825282518282018190526000919060409081850190868401855b82811015610ca957815180518552868101516001600160a01b031687860152858101518686015260609081015115159085015260809093019290850190600101610c64565b5091979650505050505050565b6020808252600f908201526e125b9d985b1a59081c995c5d595cdd608a1b604082015260600190565b60008219821115610cf257610cf2610d68565b500190565b600082610d1257634e487b7160e01b81526012600452602481fd5b500490565b6000816000190483118215151615610d3157610d31610d68565b500290565b600082821015610d4857610d48610d68565b500390565b6000600019821415610d6157610d61610d68565b5060010190565b634e487b7160e01b600052601160045260246000fdfea2646970667358221220e45eb05e685021a624d8c328b0a01bb95f7ba6fdbb1cb58d4eb231bdb862af9464736f6c63430008040033a264697066735822122038488120afc416baf09a16845aba2c3e15609177f4fa2420c3f78a34832cdc6f64736f6c63430008040033",
  "linkReferences": {},
  "deployedLinkReferences": {}
}