{
  "_format": "hh-sol-artifact-1",
  "contractName": "RamaContract",
  "sourceName": "contracts/RamaContract.sol",
  "abi": [
    {
      "inputs": [
        {
          "internalType": "address",
          "name": "tokenAddress",
          "type": "address"
        }
      ],
      "stateMutability": "nonpayable",
      "type": "constructor"
    },
    {
      "anonymous": false,
      "inputs": [
        {
          "indexed": true,
          "internalType": "address",
          "name": "previousOwner",
          "type": "address"
        },
        {
          "indexed": true,
          "internalType": "address",
          "name": "newOwner",
          "type": "address"
        }
      ],
      "name": "OwnershipTransferred",
      "type": "event"
    },
    {
      "inputs": [
        {
          "internalType": "bytes32",
          "name": "filmId",
          "type": "bytes32"
        },
        {
          "internalType": "uint256",
          "name": "targetFund",
          "type": "uint256"
        },
        {
          "internalType": "address",
          "name": "filmOwner",
          "type": "address"
        }
      ],
      "name": "addProject",
      "outputs": [],
      "stateMutability": "payable",
      "type": "function"
    },
    {
      "inputs": [
        {
          "internalType": "bytes32",
          "name": "filmId",
          "type": "bytes32"
        }
      ],
      "name": "fundProject",
      "outputs": [],
      "stateMutability": "payable",
      "type": "function"
    },
    {
      "inputs": [],
      "name": "getAllProjectIds",
      "outputs": [
        {
          "internalType": "bytes32[]",
          "name": "",
          "type": "bytes32[]"
        }
      ],
      "stateMutability": "view",
      "type": "function"
    },
    {
      "inputs": [
        {
          "internalType": "bytes32",
          "name": "filmId",
          "type": "bytes32"
        }
      ],
      "name": "getFundOfUserOnAProject",
      "outputs": [
        {
          "components": [
            {
              "internalType": "uint256",
              "name": "targetFund",
              "type": "uint256"
            },
            {
              "internalType": "uint256",
              "name": "amountFundedSoFar",
              "type": "uint256"
            },
            {
              "internalType": "uint256",
              "name": "userFund",
              "type": "uint256"
            },
            {
              "internalType": "uint256",
              "name": "yieldGenerated",
              "type": "uint256"
            }
          ],
          "internalType": "struct Film.UserFundDetails",
          "name": "",
          "type": "tuple"
        }
      ],
      "stateMutability": "view",
      "type": "function"
    },
    {
      "inputs": [
        {
          "internalType": "bytes32",
          "name": "filmId",
          "type": "bytes32"
        }
      ],
      "name": "getProjectById",
      "outputs": [
        {
          "internalType": "contract Film",
          "name": "",
          "type": "address"
        }
      ],
      "stateMutability": "view",
      "type": "function"
    },
    {
      "inputs": [],
      "name": "owner",
      "outputs": [
        {
          "internalType": "address",
          "name": "",
          "type": "address"
        }
      ],
      "stateMutability": "view",
      "type": "function"
    },
    {
      "inputs": [],
      "name": "renounceOwnership",
      "outputs": [],
      "stateMutability": "nonpayable",
      "type": "function"
    },
    {
      "inputs": [
        {
          "internalType": "address",
          "name": "newOwner",
          "type": "address"
        }
      ],
      "name": "transferOwnership",
      "outputs": [],
      "stateMutability": "nonpayable",
      "type": "function"
    }
  ],
  "bytecode": "0x608060405234801561001057600080fd5b506040516115cb3803806115cb83398101604081905261002f916100af565b6100383361005d565b600480546001600160a01b0319166001600160a01b03929092169190911790556100dd565b600380546001600160a01b038381166001600160a01b0319831681179093556040519116919082907f8be0079c531659141344cd1fd0a4f28419497f9722a3daafe3b4186f6b6457e090600090a35050565b6000602082840312156100c0578081fd5b81516001600160a01b03811681146100d6578182fd5b9392505050565b6114df806100ec6000396000f3fe60806040526004361061007a5760003560e01c8063503037531161004e5780635030375314610146578063715018a6146101595780638da5cb5b1461016e578063f2fde38b1461018c57600080fd5b80627e59c81461007f5780634a83b226146100bc5780634ac64766146100d15780634e1e4e14146100f3575b600080fd5b34801561008b57600080fd5b5061009f61009a3660046107fa565b6101ac565b6040516001600160a01b0390911681526020015b60405180910390f35b6100cf6100ca3660046107fa565b6101bd565b005b3480156100dd57600080fd5b506100e6610299565b6040516100b391906108b7565b3480156100ff57600080fd5b5061011361010e3660046107fa565b6102a8565b6040516100b391908151815260208083015190820152604080830151908201526060918201519181019190915260800190565b6100cf610154366004610812565b6102dd565b34801561016557600080fd5b506100cf610312565b34801561017a57600080fd5b506003546001600160a01b031661009f565b34801561019857600080fd5b506100cf6101a73660046107c0565b610348565b60006101b7826103e3565b92915050565b60006101ca82343361044c565b9050801561025b576004805460405163a9059cbb60e01b815233928101929092523460248301526001600160a01b03169063a9059cbb90604401602060405180830381600087803b15801561021e57600080fd5b505af1158015610232573d6000803e3d6000fd5b505050506040513d601f19601f8201168201806040525081019061025691906107da565b505050565b60405162461bcd60e51b815260206004820152600e60248201526d155b98589b19481d1bc8199d5b9960921b60448201526064015b60405180910390fd5b60606102a36104e3565b905090565b6102d36040518060800160405280600081526020016000815260200160008152602001600081525090565b6101b7823361053b565b6003546001600160a01b031633146103075760405162461bcd60e51b8152600401610290906108fb565b61025683838361063f565b6003546001600160a01b0316331461033c5760405162461bcd60e51b8152600401610290906108fb565b61034660006106e0565b565b6003546001600160a01b031633146103725760405162461bcd60e51b8152600401610290906108fb565b6001600160a01b0381166103d75760405162461bcd60e51b815260206004820152602660248201527f4f776e61626c653a206e6577206f776e657220697320746865207a65726f206160448201526564647265737360d01b6064820152608401610290565b6103e0816106e0565b50565b60006103ee82610732565b6104305760405162461bcd60e51b8152602060048201526013602482015272119a5b1b48191bd95cc81b9bdd08195e1a5cdd606a1b6044820152606401610290565b506000908152600260205260409020546001600160a01b031690565b600061045784610732565b156104d8576000848152600260205260409081902054905163eee9239560e01b8152600481018590526001600160a01b0384811660248301529091169063eee9239590604401600060405180830381600087803b1580156104b757600080fd5b505af11580156104cb573d6000803e3d6000fd5b50505050600190506104dc565b5060005b9392505050565b6060600180548060200260200160405190810160405280929190818152602001828054801561053157602002820191906000526020600020905b81548152602001906001019080831161051d575b5050505050905090565b6105666040518060800160405280600081526020016000815260200160008152602001600081525090565b61056f83610732565b156106055760008381526002602052604090819020549051631ea63cf960e11b81526001600160a01b03848116600483015290911690633d4c79f29060240160806040518083038186803b1580156105c657600080fd5b505afa1580156105da573d6000803e3d6000fd5b505050506040513d601f19601f820116820180604052508101906105fe9190610846565b90506101b7565b60405162461bcd60e51b815260206004820152600f60248201526e125b9d985b1a59081c995c5d595cdd608a1b6044820152606401610290565b818160405161064d90610797565b9182526001600160a01b03166020820152604001604051809103906000f08015801561067d573d6000803e3d6000fd5b50600084815260026020526040812080546001600160a01b0319166001600160a01b03939093169290921790915560018054808201825591527fb10e2d527612073b26eecdfd717e6a320cf44b4afac2b0732d9fcbe2b7fa0cf601929092555050565b600380546001600160a01b038381166001600160a01b0319831681179093556040519116919082907f8be0079c531659141344cd1fd0a4f28419497f9722a3daafe3b4186f6b6457e090600090a35050565b6000805b60015481101561078e57826001828154811061076257634e487b7160e01b600052603260045260246000fd5b9060005260206000200154141561077c5750600192915050565b8061078681610930565b915050610736565b50600092915050565b610b528061095883390190565b80356001600160a01b03811681146107bb57600080fd5b919050565b6000602082840312156107d1578081fd5b6104dc826107a4565b6000602082840312156107eb578081fd5b815180151581146104dc578182fd5b60006020828403121561080b578081fd5b5035919050565b600080600060608486031215610826578182fd5b833592506020840135915061083d604085016107a4565b90509250925092565b600060808284031215610857578081fd5b6040516080810181811067ffffffffffffffff8211171561088657634e487b7160e01b83526041600452602483fd5b8060405250825181526020830151602082015260408301516040820152606083015160608201528091505092915050565b6020808252825182820181905260009190848201906040850190845b818110156108ef578351835292840192918401916001016108d3565b50909695505050505050565b6020808252818101527f4f776e61626c653a2063616c6c6572206973206e6f7420746865206f776e6572604082015260600190565b600060001982141561095057634e487b7160e01b81526011600452602481fd5b506001019056fe6080604052600160025534801561001557600080fd5b50604051610b52380380610b5283398101604081905261003491610065565b6000918255600380546001600160a01b0319166001600160a01b0392909216919091179055600155436004556100a0565b60008060408385031215610077578182fd5b825160208401519092506001600160a01b0381168114610095578182fd5b809150509250929050565b610aa3806100af6000396000f3fe608060405234801561001057600080fd5b50600436106100ea5760003560e01c80634d9b37351161008c57806380a3301b1161006657806380a3301b146102065780639b46b2da14610219578063d5bab70c14610244578063eee923951461024d57600080fd5b80634d9b3735146101ad57806375d6cbdf146101c25780637b8e8895146101cb57600080fd5b80632d56bbf5116100c85780632d56bbf5146101435780633d4c79f21461014c578063492a42a214610192578063494c3e901461019a57600080fd5b806306e31858146100ef5780631e87eb321461011757806326e0b25f1461012c575b600080fd5b6101026100fd36600461093c565b610260565b60405190151581526020015b60405180910390f35b61012a61012536600461093c565b6102e0565b005b61013560005481565b60405190815260200161010e565b61013560045481565b61015f61015a36600461093c565b610300565b60405161010e91908151815260208083015190820152604080830151908201526060918201519181019190915260800190565b6101356103e0565b6101356101a836600461093c565b6103f7565b6101b56104ab565b60405161010e91906109a0565b61013560025481565b6101de6101d936600461095d565b610535565b604080519485526001600160a01b03909316602085015291830152606082015260800161010e565b61013561021436600461095d565b610578565b60035461022c906001600160a01b031681565b6040516001600160a01b03909116815260200161010e565b61013560015481565b61012a61025b366004610975565b6105c0565b6000805b6005548110156102d757826001600160a01b03166005828154811061029957634e487b7160e01b600052603260045260246000fd5b60009182526020909120600160049092020101546001600160a01b031614156102c55750600192915050565b806102cf81610a3c565b915050610264565b50600092915050565b60006102eb826103f7565b905080156102fc576102fc81610765565b5050565b61032b6040518060800160405280600081526020016000815260200160008152602001600081525090565b600061033683610260565b905080156103b1576000610349846108ac565b90506040518060800160405280600054815260200160015481526020016005838154811061038757634e487b7160e01b600052603260045260246000fd5b90600052602060002090600402016000015481526020016103a783610578565b9052949350505050565b604051806080016040528060005481526020016001548152602001600081526020016000815250915050919050565b60006001546000546103f29190610a25565b905090565b6000805b60055481101561046b57826001600160a01b03166005828154811061043057634e487b7160e01b600052603260045260246000fd5b60009182526020909120600160049092020101546001600160a01b031614156104595792915050565b8061046381610a3c565b9150506103fb565b5060405162461bcd60e51b815260206004820152600f60248201526e125b9d985b1a59081c995c5d595cdd608a1b60448201526064015b60405180910390fd5b60606005805480602002602001604051908101604052809291908181526020016000905b8282101561052c5760008481526020908190206040805160808101825260048602909201805483526001808201546001600160a01b03168486015260028201549284019290925260030154606083015290835290920191016104cf565b50505050905090565b6005818154811061054557600080fd5b600091825260209091206004909102018054600182015460028301546003909301549193506001600160a01b0316919084565b60006004546005838154811061059e57634e487b7160e01b600052603260045260246000fd5b9060005260206000209060040201600201546105ba9190610a25565b92915050565b6105c86103e0565b8211156106055760405162461bcd60e51b815260206004820152600b60248201526a115e18d95cdcc8199d5b9960aa1b60448201526064016104a2565b600061061082610260565b905080156106515760405162461bcd60e51b815260206004820152600e60248201526d105b1c9958591e48199d5b99195960921b60448201526064016104a2565b604080516080810182528481526001600160a01b038416602082015243918101919091526000606082015260015461068a908590610a0d565b600190815560058054918201815560005281517f036b6384b5eca791c62761152d0c79bb0604c104a5fb6f4eb0703f3154bb3db060049092029182015560208201517f036b6384b5eca791c62761152d0c79bb0604c104a5fb6f4eb0703f3154bb3db1820180546001600160a01b0319166001600160a01b0390921691909117905560408201517f036b6384b5eca791c62761152d0c79bb0604c104a5fb6f4eb0703f3154bb3db28201556060909101517f036b6384b5eca791c62761152d0c79bb0604c104a5fb6f4eb0703f3154bb3db390910155505050565b60055481106107a85760405162461bcd60e51b815260206004820152600f60248201526e125b9d985b1a59081c995c5d595cdd608a1b60448201526064016104a2565b600580546107b890600190610a25565b815481106107d657634e487b7160e01b600052603260045260246000fd5b90600052602060002090600402016005828154811061080557634e487b7160e01b600052603260045260246000fd5b60009182526020909120825460049092020190815560018083015490820180546001600160a01b0319166001600160a01b0390921691909117905560028083015490820155600391820154910155600580548061087257634e487b7160e01b600052603160045260246000fd5b6000828152602081206004600019909301928302018181556001810180546001600160a01b03191690556002810182905560030155905550565b6000805b60055481101561046b57826001600160a01b0316600582815481106108e557634e487b7160e01b600052603260045260246000fd5b60009182526020909120600160049092020101546001600160a01b0316141561090e5792915050565b8061091881610a3c565b9150506108b0565b80356001600160a01b038116811461093757600080fd5b919050565b60006020828403121561094d578081fd5b61095682610920565b9392505050565b60006020828403121561096e578081fd5b5035919050565b60008060408385031215610987578081fd5b8235915061099760208401610920565b90509250929050565b602080825282518282018190526000919060409081850190868401855b82811015610a0057815180518552868101516001600160a01b031687860152858101518686015260609081015190850152608090930192908501906001016109bd565b5091979650505050505050565b60008219821115610a2057610a20610a57565b500190565b600082821015610a3757610a37610a57565b500390565b6000600019821415610a5057610a50610a57565b5060010190565b634e487b7160e01b600052601160045260246000fdfea2646970667358221220cfb43c1f04c86d44b2baa981de1675891c21deb4e9c69330cb692f8c869c806164736f6c63430008040033a264697066735822122068ad1cca09a713d4988e1123418e39dceb2fc5a8cb6f5480f36898160d91401e64736f6c63430008040033",
  "linkReferences": {},
  "deployedLinkReferences": {}
}