{
  "_format": "hh-sol-artifact-1",
  "contractName": "RamaContract",
  "sourceName": "contracts/RamaContract.sol",
  "abi": [
    {
      "inputs": [
        {
          "internalType": "address",
          "name": "tokenAddress",
          "type": "address"
        }
      ],
      "stateMutability": "nonpayable",
      "type": "constructor"
    },
    {
      "anonymous": false,
      "inputs": [
        {
          "indexed": true,
          "internalType": "address",
          "name": "previousOwner",
          "type": "address"
        },
        {
          "indexed": true,
          "internalType": "address",
          "name": "newOwner",
          "type": "address"
        }
      ],
      "name": "OwnershipTransferred",
      "type": "event"
    },
    {
      "inputs": [
        {
          "internalType": "bytes32",
          "name": "filmId",
          "type": "bytes32"
        },
        {
          "internalType": "uint256",
          "name": "targetFund",
          "type": "uint256"
        },
        {
          "internalType": "address",
          "name": "filmOwner",
          "type": "address"
        }
      ],
      "name": "addProject",
      "outputs": [],
      "stateMutability": "payable",
      "type": "function"
    },
    {
      "inputs": [
        {
          "internalType": "bytes32",
          "name": "filmId",
          "type": "bytes32"
        }
      ],
      "name": "fundProject",
      "outputs": [],
      "stateMutability": "payable",
      "type": "function"
    },
    {
      "inputs": [],
      "name": "getAllProjectIds",
      "outputs": [
        {
          "internalType": "bytes32[]",
          "name": "",
          "type": "bytes32[]"
        }
      ],
      "stateMutability": "view",
      "type": "function"
    },
    {
      "inputs": [
        {
          "internalType": "bytes32",
          "name": "filmId",
          "type": "bytes32"
        }
      ],
      "name": "getFundOfUserOnAProject",
      "outputs": [
        {
          "components": [
            {
              "internalType": "uint256",
              "name": "targetFund",
              "type": "uint256"
            },
            {
              "internalType": "uint256",
              "name": "amountFundedSoFar",
              "type": "uint256"
            },
            {
              "internalType": "uint256",
              "name": "userFund",
              "type": "uint256"
            },
            {
              "internalType": "uint256",
              "name": "yieldGenerated",
              "type": "uint256"
            }
          ],
          "internalType": "struct Film.UserFundDetails",
          "name": "",
          "type": "tuple"
        }
      ],
      "stateMutability": "view",
      "type": "function"
    },
    {
      "inputs": [
        {
          "internalType": "bytes32",
          "name": "filmId",
          "type": "bytes32"
        }
      ],
      "name": "getFunds",
      "outputs": [
        {
          "components": [
            {
              "internalType": "uint256",
              "name": "amount",
              "type": "uint256"
            },
            {
              "internalType": "address",
              "name": "funder",
              "type": "address"
            },
            {
              "internalType": "uint256",
              "name": "startTime",
              "type": "uint256"
            },
            {
              "internalType": "uint256",
              "name": "yieldGenerated",
              "type": "uint256"
            }
          ],
          "internalType": "struct Film.Fund[]",
          "name": "",
          "type": "tuple[]"
        }
      ],
      "stateMutability": "view",
      "type": "function"
    },
    {
      "inputs": [
        {
          "internalType": "bytes32",
          "name": "filmId",
          "type": "bytes32"
        }
      ],
      "name": "getProjectById",
      "outputs": [
        {
          "internalType": "contract Film",
          "name": "",
          "type": "address"
        }
      ],
      "stateMutability": "view",
      "type": "function"
    },
    {
      "inputs": [],
      "name": "owner",
      "outputs": [
        {
          "internalType": "address",
          "name": "",
          "type": "address"
        }
      ],
      "stateMutability": "view",
      "type": "function"
    },
    {
      "inputs": [],
      "name": "renounceOwnership",
      "outputs": [],
      "stateMutability": "nonpayable",
      "type": "function"
    },
    {
      "inputs": [
        {
          "internalType": "address",
          "name": "newOwner",
          "type": "address"
        }
      ],
      "name": "transferOwnership",
      "outputs": [],
      "stateMutability": "nonpayable",
      "type": "function"
    }
  ],
  "bytecode": "0x608060405234801561001057600080fd5b506040516117d63803806117d683398101604081905261002f916100af565b6100383361005d565b600480546001600160a01b0319166001600160a01b03929092169190911790556100dd565b600380546001600160a01b038381166001600160a01b0319831681179093556040519116919082907f8be0079c531659141344cd1fd0a4f28419497f9722a3daafe3b4186f6b6457e090600090a35050565b6000602082840312156100c0578081fd5b81516001600160a01b03811681146100d6578182fd5b9392505050565b6116ea806100ec6000396000f3fe6080604052600436106100855760003560e01c80634e1e4e14116100595780634e1e4e141461012b578063503037531461017e578063715018a6146101915780638da5cb5b146101a6578063f2fde38b146101c457600080fd5b80627e59c81461008a57806316d125f1146100c75780634a83b226146100f45780634ac6476614610109575b600080fd5b34801561009657600080fd5b506100aa6100a536600461098f565b6101e4565b6040516001600160a01b0390911681526020015b60405180910390f35b3480156100d357600080fd5b506100e76100e236600461098f565b6101f5565b6040516100be9190610a88565b61010761010236600461098f565b6102cb565b005b34801561011557600080fd5b5061011e6103a2565b6040516100be9190610a44565b34801561013757600080fd5b5061014b61014636600461098f565b6103b1565b6040516100be91908151815260208083015190820152604080830151908201526060918201519181019190915260800190565b61010761018c3660046109a7565b6103e6565b34801561019d57600080fd5b5061010761041b565b3480156101b257600080fd5b506003546001600160a01b03166100aa565b3480156101d057600080fd5b506101076101df36600461086c565b610451565b60006101ef826104ec565b92915050565b606061020082610555565b1561028c57600082815260026020526040808220548151634d9b373560e01b815291516001600160a01b0390911692634d9b37359260048082019391829003018186803b15801561025057600080fd5b505afa158015610264573d6000803e3d6000fd5b505050506040513d6000823e601f3d908101601f191682016040526101ef9190810190610888565b60405162461bcd60e51b815260206004820152600f60248201526e125b9d985b1a59081c995c5d595cdd608a1b60448201526064015b60405180910390fd5b60006102d88234336105ba565b90508015610369576004805460405163a9059cbb60e01b815233928101929092523460248301526001600160a01b03169063a9059cbb90604401602060405180830381600087803b15801561032c57600080fd5b505af1158015610340573d6000803e3d6000fd5b505050506040513d601f19601f82011682018060405250810190610364919061096f565b505050565b60405162461bcd60e51b815260206004820152600e60248201526d155b98589b19481d1bc8199d5b9960921b60448201526064016102c2565b60606103ac610651565b905090565b6103dc6040518060800160405280600081526020016000815260200160008152602001600081525090565b6101ef82336106a9565b6003546001600160a01b031633146104105760405162461bcd60e51b81526004016102c290610af5565b61036483838361076c565b6003546001600160a01b031633146104455760405162461bcd60e51b81526004016102c290610af5565b61044f600061080d565b565b6003546001600160a01b0316331461047b5760405162461bcd60e51b81526004016102c290610af5565b6001600160a01b0381166104e05760405162461bcd60e51b815260206004820152602660248201527f4f776e61626c653a206e6577206f776e657220697320746865207a65726f206160448201526564647265737360d01b60648201526084016102c2565b6104e98161080d565b50565b60006104f782610555565b6105395760405162461bcd60e51b8152602060048201526013602482015272119a5b1b48191bd95cc81b9bdd08195e1a5cdd606a1b60448201526064016102c2565b506000908152600260205260409020546001600160a01b031690565b6000805b6001548110156105b157826001828154811061058557634e487b7160e01b600052603260045260246000fd5b9060005260206000200154141561059f5750600192915050565b806105a981610b84565b915050610559565b50600092915050565b60006105c584610555565b15610646576000848152600260205260409081902054905163eee9239560e01b8152600481018590526001600160a01b0384811660248301529091169063eee9239590604401600060405180830381600087803b15801561062557600080fd5b505af1158015610639573d6000803e3d6000fd5b505050506001905061064a565b5060005b9392505050565b6060600180548060200260200160405190810160405280929190818152602001828054801561069f57602002820191906000526020600020905b81548152602001906001019080831161068b575b5050505050905090565b6106d46040518060800160405280600081526020016000815260200160008152602001600081525090565b6106dd83610555565b1561028c5760008381526002602052604090819020549051631ea63cf960e11b81526001600160a01b03848116600483015290911690633d4c79f29060240160806040518083038186803b15801561073457600080fd5b505afa158015610748573d6000803e3d6000fd5b505050506040513d601f19601f8201168201806040525081019061064a91906109df565b818160405161077a9061085f565b9182526001600160a01b03166020820152604001604051809103906000f0801580156107aa573d6000803e3d6000fd5b50600084815260026020526040812080546001600160a01b0319166001600160a01b03939093169290921790915560018054808201825591527fb10e2d527612073b26eecdfd717e6a320cf44b4afac2b0732d9fcbe2b7fa0cf601929092555050565b600380546001600160a01b038381166001600160a01b0319831681179093556040519116919082907f8be0079c531659141344cd1fd0a4f28419497f9722a3daafe3b4186f6b6457e090600090a35050565b610ade80610bd783390190565b60006020828403121561087d578081fd5b813561064a81610bc1565b6000602080838503121561089a578182fd5b825167ffffffffffffffff808211156108b1578384fd5b818501915085601f8301126108c4578384fd5b8151818111156108d6576108d6610bab565b6108e4848260051b01610b53565b8181528481019250838501600783901b85018601891015610903578687fd5b8694505b8285101561096357608080828b03121561091f578788fd5b610927610b2a565b825181528783015161093881610bc1565b8189015260408381015190820152606080840151908201528552600195909501949386019301610907565b50979650505050505050565b600060208284031215610980578081fd5b8151801515811461064a578182fd5b6000602082840312156109a0578081fd5b5035919050565b6000806000606084860312156109bb578182fd5b833592506020840135915060408401356109d481610bc1565b809150509250925092565b6000608082840312156109f0578081fd5b6040516080810181811067ffffffffffffffff82111715610a1357610a13610bab565b8060405250825181526020830151602082015260408301516040820152606083015160608201528091505092915050565b6020808252825182820181905260009190848201906040850190845b81811015610a7c57835183529284019291840191600101610a60565b50909695505050505050565b602080825282518282018190526000919060409081850190868401855b82811015610ae857815180518552868101516001600160a01b03168786015285810151868601526060908101519085015260809093019290850190600101610aa5565b5091979650505050505050565b6020808252818101527f4f776e61626c653a2063616c6c6572206973206e6f7420746865206f776e6572604082015260600190565b6040516080810167ffffffffffffffff81118282101715610b4d57610b4d610bab565b60405290565b604051601f8201601f1916810167ffffffffffffffff81118282101715610b7c57610b7c610bab565b604052919050565b6000600019821415610ba457634e487b7160e01b81526011600452602481fd5b5060010190565b634e487b7160e01b600052604160045260246000fd5b6001600160a01b03811681146104e957600080fdfe6080604052600160025534801561001557600080fd5b50604051610ade380380610ade83398101604081905261003491610065565b6000918255600380546001600160a01b0319166001600160a01b0392909216919091179055600155436004556100a0565b60008060408385031215610077578182fd5b825160208401519092506001600160a01b0381168114610095578182fd5b809150509250929050565b610a2f806100af6000396000f3fe608060405234801561001057600080fd5b50600436106100ea5760003560e01c80634d9b37351161008c57806380a3301b1161006657806380a3301b146102065780639b46b2da14610219578063d5bab70c14610244578063eee923951461024d57600080fd5b80634d9b3735146101ad57806375d6cbdf146101c25780637b8e8895146101cb57600080fd5b80632d56bbf5116100c85780632d56bbf5146101435780633d4c79f21461014c578063492a42a214610192578063494c3e901461019a57600080fd5b806306e31858146100ef5780631e87eb321461011757806326e0b25f1461012c575b600080fd5b6101026100fd3660046108c8565b610260565b60405190151581526020015b60405180910390f35b61012a6101253660046108c8565b6102e0565b005b61013560005481565b60405190815260200161010e565b61013560045481565b61015f61015a3660046108c8565b610300565b60405161010e91908151815260208083015190820152604080830151908201526060918201519181019190915260800190565b6101356103e0565b6101356101a83660046108c8565b6103f7565b6101b56104ab565b60405161010e919061092c565b61013560025481565b6101de6101d93660046108e9565b610535565b604080519485526001600160a01b03909316602085015291830152606082015260800161010e565b6101356102143660046108e9565b610578565b60035461022c906001600160a01b031681565b6040516001600160a01b03909116815260200161010e565b61013560015481565b61012a61025b366004610901565b6105c0565b6000805b6005548110156102d757826001600160a01b03166005828154811061029957634e487b7160e01b600052603260045260246000fd5b60009182526020909120600160049092020101546001600160a01b031614156102c55750600192915050565b806102cf816109c8565b915050610264565b50600092915050565b60006102eb826103f7565b905080156102fc576102fc81610765565b5050565b61032b6040518060800160405280600081526020016000815260200160008152602001600081525090565b600061033683610260565b905080156103b1576000610349846103f7565b90506040518060800160405280600054815260200160015481526020016005838154811061038757634e487b7160e01b600052603260045260246000fd5b90600052602060002090600402016000015481526020016103a783610578565b9052949350505050565b604051806080016040528060005481526020016001548152602001600081526020016000815250915050919050565b60006001546000546103f291906109b1565b905090565b6000805b60055481101561046b57826001600160a01b03166005828154811061043057634e487b7160e01b600052603260045260246000fd5b60009182526020909120600160049092020101546001600160a01b031614156104595792915050565b80610463816109c8565b9150506103fb565b5060405162461bcd60e51b815260206004820152600f60248201526e125b9d985b1a59081c995c5d595cdd608a1b60448201526064015b60405180910390fd5b60606005805480602002602001604051908101604052809291908181526020016000905b8282101561052c5760008481526020908190206040805160808101825260048602909201805483526001808201546001600160a01b03168486015260028201549284019290925260030154606083015290835290920191016104cf565b50505050905090565b6005818154811061054557600080fd5b600091825260209091206004909102018054600182015460028301546003909301549193506001600160a01b0316919084565b60006004546005838154811061059e57634e487b7160e01b600052603260045260246000fd5b9060005260206000209060040201600201546105ba91906109b1565b92915050565b6105c86103e0565b8211156106055760405162461bcd60e51b815260206004820152600b60248201526a115e18d95cdcc8199d5b9960aa1b60448201526064016104a2565b600061061082610260565b905080156106515760405162461bcd60e51b815260206004820152600e60248201526d105b1c9958591e48199d5b99195960921b60448201526064016104a2565b604080516080810182528481526001600160a01b038416602082015243918101919091526000606082015260015461068a908590610999565b600190815560058054918201815560005281517f036b6384b5eca791c62761152d0c79bb0604c104a5fb6f4eb0703f3154bb3db060049092029182015560208201517f036b6384b5eca791c62761152d0c79bb0604c104a5fb6f4eb0703f3154bb3db1820180546001600160a01b0319166001600160a01b0390921691909117905560408201517f036b6384b5eca791c62761152d0c79bb0604c104a5fb6f4eb0703f3154bb3db28201556060909101517f036b6384b5eca791c62761152d0c79bb0604c104a5fb6f4eb0703f3154bb3db390910155505050565b60055481106107a85760405162461bcd60e51b815260206004820152600f60248201526e125b9d985b1a59081c995c5d595cdd608a1b60448201526064016104a2565b600580546107b8906001906109b1565b815481106107d657634e487b7160e01b600052603260045260246000fd5b90600052602060002090600402016005828154811061080557634e487b7160e01b600052603260045260246000fd5b60009182526020909120825460049092020190815560018083015490820180546001600160a01b0319166001600160a01b0390921691909117905560028083015490820155600391820154910155600580548061087257634e487b7160e01b600052603160045260246000fd5b6000828152602081206004600019909301928302018181556001810180546001600160a01b03191690556002810182905560030155905550565b80356001600160a01b03811681146108c357600080fd5b919050565b6000602082840312156108d9578081fd5b6108e2826108ac565b9392505050565b6000602082840312156108fa578081fd5b5035919050565b60008060408385031215610913578081fd5b82359150610923602084016108ac565b90509250929050565b602080825282518282018190526000919060409081850190868401855b8281101561098c57815180518552868101516001600160a01b03168786015285810151868601526060908101519085015260809093019290850190600101610949565b5091979650505050505050565b600082198211156109ac576109ac6109e3565b500190565b6000828210156109c3576109c36109e3565b500390565b60006000198214156109dc576109dc6109e3565b5060010190565b634e487b7160e01b600052601160045260246000fdfea2646970667358221220cc55b179e89531a719c2e2dd68e9e31f92b15cef779a557fcc68c65f9de422c264736f6c63430008040033a26469706673582212201fc1c737f174b77e928c3e0b5a14627a5845ab3b85b56d2881707a2640eb161e64736f6c63430008040033",
  "linkReferences": {},
  "deployedLinkReferences": {}
}