{
  "_format": "hh-sol-artifact-1",
  "contractName": "RamaContract",
  "sourceName": "contracts/RamaContract.sol",
  "abi": [
    {
      "inputs": [
        {
          "internalType": "address",
          "name": "tokenAddress",
          "type": "address"
        }
      ],
      "stateMutability": "nonpayable",
      "type": "constructor"
    },
    {
      "anonymous": false,
      "inputs": [
        {
          "indexed": true,
          "internalType": "address",
          "name": "previousOwner",
          "type": "address"
        },
        {
          "indexed": true,
          "internalType": "address",
          "name": "newOwner",
          "type": "address"
        }
      ],
      "name": "OwnershipTransferred",
      "type": "event"
    },
    {
      "inputs": [
        {
          "internalType": "bytes32",
          "name": "filmId",
          "type": "bytes32"
        },
        {
          "internalType": "uint256",
          "name": "targetFund",
          "type": "uint256"
        },
        {
          "internalType": "address",
          "name": "filmOwner",
          "type": "address"
        }
      ],
      "name": "addProject",
      "outputs": [],
      "stateMutability": "payable",
      "type": "function"
    },
    {
      "inputs": [
        {
          "internalType": "bytes32",
          "name": "filmId",
          "type": "bytes32"
        }
      ],
      "name": "claimableReward",
      "outputs": [
        {
          "internalType": "uint256",
          "name": "",
          "type": "uint256"
        }
      ],
      "stateMutability": "view",
      "type": "function"
    },
    {
      "inputs": [
        {
          "internalType": "bytes32",
          "name": "filmId",
          "type": "bytes32"
        }
      ],
      "name": "fundProject",
      "outputs": [],
      "stateMutability": "payable",
      "type": "function"
    },
    {
      "inputs": [],
      "name": "getAllProjectIds",
      "outputs": [
        {
          "internalType": "bytes32[]",
          "name": "",
          "type": "bytes32[]"
        }
      ],
      "stateMutability": "view",
      "type": "function"
    },
    {
      "inputs": [
        {
          "internalType": "bytes32",
          "name": "filmId",
          "type": "bytes32"
        },
        {
          "internalType": "address",
          "name": "sender",
          "type": "address"
        }
      ],
      "name": "getClaimableBalance",
      "outputs": [
        {
          "internalType": "uint256",
          "name": "",
          "type": "uint256"
        }
      ],
      "stateMutability": "view",
      "type": "function"
    },
    {
      "inputs": [
        {
          "internalType": "bytes32",
          "name": "filmId",
          "type": "bytes32"
        }
      ],
      "name": "getFundOfUserOnAProject",
      "outputs": [
        {
          "components": [
            {
              "internalType": "uint256",
              "name": "userFund",
              "type": "uint256"
            },
            {
              "internalType": "uint256",
              "name": "yieldGenerated",
              "type": "uint256"
            }
          ],
          "internalType": "struct Film.UserFundDetails",
          "name": "",
          "type": "tuple"
        }
      ],
      "stateMutability": "view",
      "type": "function"
    },
    {
      "inputs": [
        {
          "internalType": "bytes32",
          "name": "filmId",
          "type": "bytes32"
        }
      ],
      "name": "getFunds",
      "outputs": [
        {
          "components": [
            {
              "internalType": "uint256",
              "name": "amount",
              "type": "uint256"
            },
            {
              "internalType": "address",
              "name": "funder",
              "type": "address"
            },
            {
              "internalType": "uint256",
              "name": "startTime",
              "type": "uint256"
            },
            {
              "internalType": "bool",
              "name": "claimed",
              "type": "bool"
            }
          ],
          "internalType": "struct Film.Fund[]",
          "name": "",
          "type": "tuple[]"
        }
      ],
      "stateMutability": "view",
      "type": "function"
    },
    {
      "inputs": [
        {
          "internalType": "bytes32",
          "name": "filmId",
          "type": "bytes32"
        }
      ],
      "name": "getProjectById",
      "outputs": [
        {
          "internalType": "contract Film",
          "name": "",
          "type": "address"
        }
      ],
      "stateMutability": "view",
      "type": "function"
    },
    {
      "inputs": [
        {
          "internalType": "bytes32",
          "name": "filmId",
          "type": "bytes32"
        }
      ],
      "name": "getProjectFundDetails",
      "outputs": [
        {
          "components": [
            {
              "internalType": "uint256",
              "name": "targetFund",
              "type": "uint256"
            },
            {
              "internalType": "uint256",
              "name": "fundedSoFar",
              "type": "uint256"
            }
          ],
          "internalType": "struct Film.FilmFundDetails",
          "name": "",
          "type": "tuple"
        }
      ],
      "stateMutability": "view",
      "type": "function"
    },
    {
      "inputs": [],
      "name": "owner",
      "outputs": [
        {
          "internalType": "address",
          "name": "",
          "type": "address"
        }
      ],
      "stateMutability": "view",
      "type": "function"
    },
    {
      "inputs": [],
      "name": "renounceOwnership",
      "outputs": [],
      "stateMutability": "nonpayable",
      "type": "function"
    },
    {
      "inputs": [
        {
          "internalType": "address",
          "name": "newOwner",
          "type": "address"
        }
      ],
      "name": "transferOwnership",
      "outputs": [],
      "stateMutability": "nonpayable",
      "type": "function"
    }
  ],
  "bytecode": "0x608060405234801561001057600080fd5b50604051611a83380380611a8383398101604081905261002f916100af565b6100383361005d565b600480546001600160a01b0319166001600160a01b03929092169190911790556100dd565b600380546001600160a01b038381166001600160a01b0319831681179093556040519116919082907f8be0079c531659141344cd1fd0a4f28419497f9722a3daafe3b4186f6b6457e090600090a35050565b6000602082840312156100c0578081fd5b81516001600160a01b03811681146100d6578182fd5b9392505050565b611997806100ec6000396000f3fe6080604052600436106100a65760003560e01c806350303753116100645780635030375314610199578063715018a6146101ac5780638580774d146101c15780638da5cb5b146101ef578063b6ab2efd1461020d578063f2fde38b1461022d57600080fd5b80627e59c8146100ab57806316d125f1146100e85780634a039b89146101155780634a83b226146101425780634ac64766146101575780634e1e4e1414610179575b600080fd5b3480156100b757600080fd5b506100cb6100c6366004610bb7565b61024d565b6040516001600160a01b0390911681526020015b60405180910390f35b3480156100f457600080fd5b50610108610103366004610bb7565b61025e565b6040516100df9190610cad565b34801561012157600080fd5b50610135610130366004610bb7565b610339565b6040516100df9190610d51565b610155610150366004610bb7565b610364565b005b34801561016357600080fd5b5061016c61043b565b6040516100df9190610c69565b34801561018557600080fd5b50610135610194366004610bb7565b61044a565b6101556101a7366004610bfe565b610468565b3480156101b857600080fd5b5061015561049d565b3480156101cd57600080fd5b506101e16101dc366004610bcf565b6104d3565b6040519081526020016100df565b3480156101fb57600080fd5b506003546001600160a01b03166100cb565b34801561021957600080fd5b506101e1610228366004610bb7565b610574565b34801561023957600080fd5b50610155610248366004610a93565b61058e565b600061025882610629565b92915050565b606061026982610692565b156102f557600082815260026020526040808220548151634d9b373560e01b815291516001600160a01b0390911692634d9b37359260048082019391829003018186803b1580156102b957600080fd5b505afa1580156102cd573d6000803e3d6000fd5b505050506040513d6000823e601f3d908101601f191682016040526102589190810190610aaf565b60405162461bcd60e51b815260206004820152600f60248201526e125b9d985b1a59081c995c5d595cdd608a1b60448201526064015b60405180910390fd5b919050565b604080518082019091526000808252602082015261035682610692565b156102f557610258826106f7565b600061037182343361079c565b90508015610402576004805460405163a9059cbb60e01b815233928101929092523460248301526001600160a01b03169063a9059cbb90604401602060405180830381600087803b1580156103c557600080fd5b505af11580156103d9573d6000803e3d6000fd5b505050506040513d601f19601f820116820180604052508101906103fd9190610b9d565b505050565b60405162461bcd60e51b815260206004820152600e60248201526d155b98589b19481d1bc8199d5b9960921b604482015260640161032b565b6060610445610832565b905090565b6040805180820190915260008082526020820152610258823361088a565b6003546001600160a01b031633146104925760405162461bcd60e51b815260040161032b90610d1c565b6103fd838383610935565b6003546001600160a01b031633146104c75760405162461bcd60e51b815260040161032b90610d1c565b6104d160006109d6565b565b60006104de83610692565b156102f55760008381526002602052604090819020549051630687266160e01b81526001600160a01b0384811660048301529091169063068726619060240160206040518083038186803b15801561053557600080fd5b505afa158015610549573d6000803e3d6000fd5b505050506040513d601f19601f8201168201806040525081019061056d9190610c51565b9392505050565b600061057f82610692565b156102f55761025882336104d3565b6003546001600160a01b031633146105b85760405162461bcd60e51b815260040161032b90610d1c565b6001600160a01b03811661061d5760405162461bcd60e51b815260206004820152602660248201527f4f776e61626c653a206e6577206f776e657220697320746865207a65726f206160448201526564647265737360d01b606482015260840161032b565b610626816109d6565b50565b600061063482610692565b6106765760405162461bcd60e51b8152602060048201526013602482015272119a5b1b48191bd95cc81b9bdd08195e1a5cdd606a1b604482015260640161032b565b506000908152600260205260409020546001600160a01b031690565b6000805b6001548110156106ee5782600182815481106106c257634e487b7160e01b600052603260045260246000fd5b906000526020600020015414156106dc5750600192915050565b806106e681610dc2565b915050610696565b50600092915050565b604080518082019091526000808252602082015261071482610692565b156102f55760008281526002602052604090819020548151630461a46160e31b815282516001600160a01b039092169263230d230892600480840193829003018186803b15801561076457600080fd5b505afa158015610778573d6000803e3d6000fd5b505050506040513d601f19601f820116820180604052508101906102589190610c36565b60006107a784610692565b15610828576000848152600260205260409081902054905163eee9239560e01b8152600481018590526001600160a01b0384811660248301529091169063eee9239590604401600060405180830381600087803b15801561080757600080fd5b505af115801561081b573d6000803e3d6000fd5b505050506001905061056d565b5060009392505050565b6060600180548060200260200160405190810160405280929190818152602001828054801561088057602002820191906000526020600020905b81548152602001906001019080831161086c575b5050505050905090565b60408051808201909152600080825260208201526108a783610692565b156102f55760008381526002602052604090819020549051631ea63cf960e11b81526001600160a01b03848116600483015290911690633d4c79f290602401604080518083038186803b1580156108fd57600080fd5b505afa158015610911573d6000803e3d6000fd5b505050506040513d601f19601f8201168201806040525081019061056d9190610c36565b818160405161094390610a28565b9182526001600160a01b03166020820152604001604051809103906000f080158015610973573d6000803e3d6000fd5b50600084815260026020526040812080546001600160a01b0319166001600160a01b03939093169290921790915560018054808201825591527fb10e2d527612073b26eecdfd717e6a320cf44b4afac2b0732d9fcbe2b7fa0cf601929092555050565b600380546001600160a01b038381166001600160a01b0319831681179093556040519116919082907f8be0079c531659141344cd1fd0a4f28419497f9722a3daafe3b4186f6b6457e090600090a35050565b610b4d80610e1583390190565b8051801515811461033457600080fd5b600060408284031215610a56578081fd5b6040516040810181811067ffffffffffffffff82111715610a7957610a79610de9565b604052825181526020928301519281019290925250919050565b600060208284031215610aa4578081fd5b813561056d81610dff565b60006020808385031215610ac1578182fd5b825167ffffffffffffffff80821115610ad8578384fd5b818501915085601f830112610aeb578384fd5b815181811115610afd57610afd610de9565b610b0b848260051b01610d91565b8181528481019250838501600783901b85018601891015610b2a578687fd5b8694505b82851015610b9157608080828b031215610b46578788fd5b610b4e610d68565b8251815287830151610b5f81610dff565b81890152604083810151908201526060610b7a818501610a35565b908201528552600195909501949386019301610b2e565b50979650505050505050565b600060208284031215610bae578081fd5b61056d82610a35565b600060208284031215610bc8578081fd5b5035919050565b60008060408385031215610be1578081fd5b823591506020830135610bf381610dff565b809150509250929050565b600080600060608486031215610c12578081fd5b83359250602084013591506040840135610c2b81610dff565b809150509250925092565b600060408284031215610c47578081fd5b61056d8383610a45565b600060208284031215610c62578081fd5b5051919050565b6020808252825182820181905260009190848201906040850190845b81811015610ca157835183529284019291840191600101610c85565b50909695505050505050565b602080825282518282018190526000919060409081850190868401855b82811015610d0f57815180518552868101516001600160a01b031687860152858101518686015260609081015115159085015260809093019290850190600101610cca565b5091979650505050505050565b6020808252818101527f4f776e61626c653a2063616c6c6572206973206e6f7420746865206f776e6572604082015260600190565b815181526020808301519082015260408101610258565b6040516080810167ffffffffffffffff81118282101715610d8b57610d8b610de9565b60405290565b604051601f8201601f1916810167ffffffffffffffff81118282101715610dba57610dba610de9565b604052919050565b6000600019821415610de257634e487b7160e01b81526011600452602481fd5b5060010190565b634e487b7160e01b600052604160045260246000fd5b6001600160a01b038116811461062657600080fdfe6080604052600160025534801561001557600080fd5b50604051610b4d380380610b4d83398101604081905261003491610065565b6000918255600380546001600160a01b0319166001600160a01b0392909216919091179055600155426004556100a0565b60008060408385031215610077578182fd5b825160208401519092506001600160a01b0381168114610095578182fd5b809150509250929050565b610a9e806100af6000396000f3fe608060405234801561001057600080fd5b50600436106101005760003560e01c8063494c3e90116100975780637b8e8895116100665780637b8e88951461020a5780639b46b2da14610247578063d5bab70c14610272578063eee923951461027b57600080fd5b8063494c3e90146101c65780634d9b3735146101d95780636d3e0483146101ee57806375d6cbdf1461020157600080fd5b806326e0b25f116100d357806326e0b25f146101995780632d56bbf5146101a25780633d4c79f2146101ab578063492a42a2146101be57600080fd5b8063068726611461010557806306e318581461012b5780631e87eb321461014e578063230d230814610163575b600080fd5b6101186101133660046108d6565b61028e565b6040519081526020015b60405180910390f35b61013e6101393660046108d6565b6102ba565b6040519015158152602001610122565b61016161015c3660046108d6565b61033a565b005b604080518082018252600080825260209182018190528251808401909352548252600154908201525b60405161012291906109d2565b61011860005481565b61011860045481565b61018c6101b93660046108d6565b61035a565b610118610405565b6101186101d43660046108d6565b61041c565b6101e16104a9565b604051610122919061093a565b6101186101fc3660046108f7565b610538565b61011860025481565b61021d6102183660046108f7565b610580565b604080519485526001600160a01b0390931660208501529183015215156060820152608001610122565b60035461025a906001600160a01b031681565b6040516001600160a01b039091168152602001610122565b61011860015481565b61016161028936600461090f565b6105c6565b60008061029a8361041c565b90506000426102a883610538565b6102b29190610a01565b949350505050565b6000805b60055481101561033157826001600160a01b0316600582815481106102f357634e487b7160e01b600052603260045260246000fd5b60009182526020909120600160049092020101546001600160a01b0316141561031f5750600192915050565b8061032981610a37565b9150506102be565b50600092915050565b60006103458261041c565b905080156103565761035681610779565b5050565b60408051808201909152600080825260208201526000610379836102ba565b905080156103e457600061038c8461041c565b90506040518060400160405280600583815481106103ba57634e487b7160e01b600052603260045260246000fd5b90600052602060002090600402016000015481526020016103da8661028e565b9052949350505050565b60405162461bcd60e51b81526004016103fc906109a9565b60405180910390fd5b60006001546000546104179190610a20565b905090565b6000805b60055481101561049057826001600160a01b03166005828154811061045557634e487b7160e01b600052603260045260246000fd5b60009182526020909120600160049092020101546001600160a01b0316141561047e5792915050565b8061048881610a37565b915050610420565b5060405162461bcd60e51b81526004016103fc906109a9565b60606005805480602002602001604051908101604052809291908181526020016000905b8282101561052f5760008481526020908190206040805160808101825260048602909201805483526001808201546001600160a01b0316848601526002820154928401929092526003015460ff161515606083015290835290920191016104cd565b50505050905090565b60006004546005838154811061055e57634e487b7160e01b600052603260045260246000fd5b90600052602060002090600402016002015461057a9190610a20565b92915050565b6005818154811061059057600080fd5b600091825260209091206004909102018054600182015460028301546003909301549193506001600160a01b0316919060ff1684565b6105ce610405565b82111561060b5760405162461bcd60e51b815260206004820152600b60248201526a115e18d95cdcc8199d5b9960aa1b60448201526064016103fc565b6000610616826102ba565b905080156106575760405162461bcd60e51b815260206004820152600e60248201526d105b1c9958591e48199d5b99195960921b60448201526064016103fc565b604080516080810182528481526001600160a01b03841660208201524291810191909152600060608201526001546106909085906109e9565b600190815560058054918201815560005281517f036b6384b5eca791c62761152d0c79bb0604c104a5fb6f4eb0703f3154bb3db060049092029182015560208201517f036b6384b5eca791c62761152d0c79bb0604c104a5fb6f4eb0703f3154bb3db1820180546001600160a01b0319166001600160a01b0390921691909117905560408201517f036b6384b5eca791c62761152d0c79bb0604c104a5fb6f4eb0703f3154bb3db28201556060909101517f036b6384b5eca791c62761152d0c79bb0604c104a5fb6f4eb0703f3154bb3db3909101805460ff1916911515919091179055505050565b600554811061079a5760405162461bcd60e51b81526004016103fc906109a9565b600580546107aa90600190610a20565b815481106107c857634e487b7160e01b600052603260045260246000fd5b9060005260206000209060040201600582815481106107f757634e487b7160e01b600052603260045260246000fd5b60009182526020909120825460049092020190815560018083015490820180546001600160a01b0319166001600160a01b03909216919091179055600280830154908201556003918201549101805460ff909216151560ff19909216919091179055600580548061087857634e487b7160e01b600052603160045260246000fd5b6000828152602081206004600019909301928302018181556001810180546001600160a01b03191690556002810191909155600301805460ff19169055905550565b80356001600160a01b03811681146108d157600080fd5b919050565b6000602082840312156108e7578081fd5b6108f0826108ba565b9392505050565b600060208284031215610908578081fd5b5035919050565b60008060408385031215610921578081fd5b82359150610931602084016108ba565b90509250929050565b602080825282518282018190526000919060409081850190868401855b8281101561099c57815180518552868101516001600160a01b031687860152858101518686015260609081015115159085015260809093019290850190600101610957565b5091979650505050505050565b6020808252600f908201526e125b9d985b1a59081c995c5d595cdd608a1b604082015260600190565b81518152602080830151908201526040810161057a565b600082198211156109fc576109fc610a52565b500190565b6000816000190483118215151615610a1b57610a1b610a52565b500290565b600082821015610a3257610a32610a52565b500390565b6000600019821415610a4b57610a4b610a52565b5060010190565b634e487b7160e01b600052601160045260246000fdfea2646970667358221220e12cbf41a808215d665421dd9f7c513f9d61c5e8b5719409efba2c80a579d88164736f6c63430008040033a26469706673582212201b39d58234abea9d839b229b7f940b8a23c3d1a8b9e7aaef9b6e4cc1c426bc0964736f6c63430008040033",
  "linkReferences": {},
  "deployedLinkReferences": {}
}