{
  "_format": "hh-sol-artifact-1",
  "contractName": "RamaContract",
  "sourceName": "contracts/RamaContract.sol",
  "abi": [
    {
      "inputs": [
        {
          "internalType": "address",
          "name": "tokenAddress",
          "type": "address"
        }
      ],
      "stateMutability": "nonpayable",
      "type": "constructor"
    },
    {
      "anonymous": false,
      "inputs": [
        {
          "indexed": true,
          "internalType": "address",
          "name": "previousOwner",
          "type": "address"
        },
        {
          "indexed": true,
          "internalType": "address",
          "name": "newOwner",
          "type": "address"
        }
      ],
      "name": "OwnershipTransferred",
      "type": "event"
    },
    {
      "inputs": [
        {
          "internalType": "bytes32",
          "name": "filmId",
          "type": "bytes32"
        },
        {
          "internalType": "uint256",
          "name": "targetFund",
          "type": "uint256"
        },
        {
          "internalType": "address",
          "name": "filmOwner",
          "type": "address"
        }
      ],
      "name": "addFilm",
      "outputs": [],
      "stateMutability": "nonpayable",
      "type": "function"
    },
    {
      "inputs": [
        {
          "internalType": "bytes32",
          "name": "filmId",
          "type": "bytes32"
        },
        {
          "internalType": "uint256",
          "name": "targetFund",
          "type": "uint256"
        },
        {
          "internalType": "address",
          "name": "filmOwner",
          "type": "address"
        }
      ],
      "name": "addProject",
      "outputs": [],
      "stateMutability": "payable",
      "type": "function"
    },
    {
      "inputs": [
        {
          "internalType": "bytes32",
          "name": "filmId",
          "type": "bytes32"
        }
      ],
      "name": "claimProjectRewards",
      "outputs": [
        {
          "internalType": "uint256",
          "name": "",
          "type": "uint256"
        }
      ],
      "stateMutability": "nonpayable",
      "type": "function"
    },
    {
      "inputs": [
        {
          "internalType": "bytes32",
          "name": "filmId",
          "type": "bytes32"
        },
        {
          "internalType": "address",
          "name": "sender",
          "type": "address"
        }
      ],
      "name": "claimReward",
      "outputs": [
        {
          "internalType": "uint256",
          "name": "",
          "type": "uint256"
        }
      ],
      "stateMutability": "view",
      "type": "function"
    },
    {
      "inputs": [
        {
          "internalType": "bytes32",
          "name": "filmId",
          "type": "bytes32"
        }
      ],
      "name": "doesItemExist",
      "outputs": [
        {
          "internalType": "bool",
          "name": "",
          "type": "bool"
        }
      ],
      "stateMutability": "view",
      "type": "function"
    },
    {
      "inputs": [
        {
          "internalType": "bytes32",
          "name": "filmId",
          "type": "bytes32"
        },
        {
          "internalType": "uint256",
          "name": "value",
          "type": "uint256"
        },
        {
          "internalType": "address",
          "name": "sender",
          "type": "address"
        }
      ],
      "name": "fund",
      "outputs": [
        {
          "internalType": "bool",
          "name": "",
          "type": "bool"
        }
      ],
      "stateMutability": "nonpayable",
      "type": "function"
    },
    {
      "inputs": [
        {
          "internalType": "bytes32",
          "name": "filmId",
          "type": "bytes32"
        }
      ],
      "name": "fundProject",
      "outputs": [],
      "stateMutability": "payable",
      "type": "function"
    },
    {
      "inputs": [],
      "name": "getAllFilmIds",
      "outputs": [
        {
          "internalType": "bytes32[]",
          "name": "",
          "type": "bytes32[]"
        }
      ],
      "stateMutability": "view",
      "type": "function"
    },
    {
      "inputs": [],
      "name": "getAllProjectIds",
      "outputs": [
        {
          "internalType": "bytes32[]",
          "name": "",
          "type": "bytes32[]"
        }
      ],
      "stateMutability": "view",
      "type": "function"
    },
    {
      "inputs": [
        {
          "internalType": "bytes32",
          "name": "filmId",
          "type": "bytes32"
        }
      ],
      "name": "getFilm",
      "outputs": [
        {
          "internalType": "contract Film",
          "name": "",
          "type": "address"
        }
      ],
      "stateMutability": "view",
      "type": "function"
    },
    {
      "inputs": [
        {
          "internalType": "bytes32",
          "name": "filmId",
          "type": "bytes32"
        }
      ],
      "name": "getFilmFundDetails",
      "outputs": [
        {
          "components": [
            {
              "internalType": "uint256",
              "name": "targetFund",
              "type": "uint256"
            },
            {
              "internalType": "uint256",
              "name": "fundedSoFar",
              "type": "uint256"
            }
          ],
          "internalType": "struct Film.FilmFundDetails",
          "name": "",
          "type": "tuple"
        }
      ],
      "stateMutability": "view",
      "type": "function"
    },
    {
      "inputs": [
        {
          "internalType": "bytes32",
          "name": "filmId",
          "type": "bytes32"
        },
        {
          "internalType": "address",
          "name": "sender",
          "type": "address"
        }
      ],
      "name": "getFundOfUser",
      "outputs": [
        {
          "components": [
            {
              "internalType": "uint256",
              "name": "userFund",
              "type": "uint256"
            },
            {
              "internalType": "uint256",
              "name": "claimableYield",
              "type": "uint256"
            }
          ],
          "internalType": "struct Film.UserFundDetails",
          "name": "",
          "type": "tuple"
        }
      ],
      "stateMutability": "view",
      "type": "function"
    },
    {
      "inputs": [
        {
          "internalType": "bytes32",
          "name": "filmId",
          "type": "bytes32"
        }
      ],
      "name": "getFundOfUserOnAProject",
      "outputs": [
        {
          "components": [
            {
              "internalType": "uint256",
              "name": "userFund",
              "type": "uint256"
            },
            {
              "internalType": "uint256",
              "name": "claimableYield",
              "type": "uint256"
            }
          ],
          "internalType": "struct Film.UserFundDetails",
          "name": "",
          "type": "tuple"
        }
      ],
      "stateMutability": "view",
      "type": "function"
    },
    {
      "inputs": [
        {
          "internalType": "bytes32",
          "name": "filmId",
          "type": "bytes32"
        }
      ],
      "name": "getFunds",
      "outputs": [
        {
          "components": [
            {
              "internalType": "uint256",
              "name": "amount",
              "type": "uint256"
            },
            {
              "internalType": "address",
              "name": "funder",
              "type": "address"
            },
            {
              "internalType": "uint256",
              "name": "startTime",
              "type": "uint256"
            },
            {
              "internalType": "bool",
              "name": "isClaimed",
              "type": "bool"
            },
            {
              "internalType": "uint256",
              "name": "claimableYield",
              "type": "uint256"
            }
          ],
          "internalType": "struct Film.Fund[]",
          "name": "",
          "type": "tuple[]"
        }
      ],
      "stateMutability": "view",
      "type": "function"
    },
    {
      "inputs": [
        {
          "internalType": "bytes32",
          "name": "filmId",
          "type": "bytes32"
        }
      ],
      "name": "getProjectById",
      "outputs": [
        {
          "internalType": "contract Film",
          "name": "",
          "type": "address"
        }
      ],
      "stateMutability": "view",
      "type": "function"
    },
    {
      "inputs": [
        {
          "internalType": "bytes32",
          "name": "filmId",
          "type": "bytes32"
        }
      ],
      "name": "getProjectFundDetails",
      "outputs": [
        {
          "components": [
            {
              "internalType": "uint256",
              "name": "targetFund",
              "type": "uint256"
            },
            {
              "internalType": "uint256",
              "name": "fundedSoFar",
              "type": "uint256"
            }
          ],
          "internalType": "struct Film.FilmFundDetails",
          "name": "",
          "type": "tuple"
        }
      ],
      "stateMutability": "view",
      "type": "function"
    },
    {
      "inputs": [
        {
          "internalType": "address",
          "name": "sender",
          "type": "address"
        }
      ],
      "name": "getUserFundedFilmIds",
      "outputs": [
        {
          "internalType": "bytes32[]",
          "name": "",
          "type": "bytes32[]"
        }
      ],
      "stateMutability": "view",
      "type": "function"
    },
    {
      "inputs": [],
      "name": "getUserFundedProjects",
      "outputs": [
        {
          "internalType": "bytes32[]",
          "name": "",
          "type": "bytes32[]"
        }
      ],
      "stateMutability": "view",
      "type": "function"
    },
    {
      "inputs": [
        {
          "internalType": "bytes32",
          "name": "filmId",
          "type": "bytes32"
        },
        {
          "internalType": "address",
          "name": "sender",
          "type": "address"
        }
      ],
      "name": "lockFund",
      "outputs": [],
      "stateMutability": "nonpayable",
      "type": "function"
    },
    {
      "inputs": [],
      "name": "owner",
      "outputs": [
        {
          "internalType": "address",
          "name": "",
          "type": "address"
        }
      ],
      "stateMutability": "view",
      "type": "function"
    },
    {
      "inputs": [
        {
          "internalType": "bytes32",
          "name": "filmId",
          "type": "bytes32"
        },
        {
          "internalType": "address",
          "name": "sender",
          "type": "address"
        }
      ],
      "name": "removeFund",
      "outputs": [],
      "stateMutability": "nonpayable",
      "type": "function"
    },
    {
      "inputs": [],
      "name": "renounceOwnership",
      "outputs": [],
      "stateMutability": "nonpayable",
      "type": "function"
    },
    {
      "inputs": [
        {
          "internalType": "address",
          "name": "newOwner",
          "type": "address"
        }
      ],
      "name": "transferOwnership",
      "outputs": [],
      "stateMutability": "nonpayable",
      "type": "function"
    }
  ],
  "bytecode": "0x608060405234801561001057600080fd5b5060405161221c38038061221c83398101604081905261002f916100af565b6100383361005d565b600480546001600160a01b0319166001600160a01b03929092169190911790556100dd565b600380546001600160a01b038381166001600160a01b0319831681179093556040519116919082907f8be0079c531659141344cd1fd0a4f28419497f9722a3daafe3b4186f6b6457e090600090a35050565b6000602082840312156100c0578081fd5b81516001600160a01b03811681146100d6578182fd5b9392505050565b612130806100ec6000396000f3fe60806040526004361061013f5760003560e01c8063641a9e9e116100b6578063c637ec901161006f578063c637ec901461037d578063d9a9f0b614610392578063f2fde38b146103b2578063f40d1f33146103d2578063f71e0755146103f2578063f9d0ff061461042057600080fd5b8063641a9e9e146102d5578063715018a6146102ea5780637159550d146102ff57806378143f951461031f5780638da5cb5b1461033f578063ab05204e1461035d57600080fd5b80634a039b89116101085780634a039b89146102205780634a83b2261461024d5780634ac64766146102605780634e1e4e141461028257806350303753146102a25780635fb56c57146102b557600080fd5b80627e59c8146101445780630745c8651461018157806313229311146101b157806316d125f1146101d15780633d22ef35146101fe575b600080fd5b34801561015057600080fd5b5061016461015f366004611088565b610440565b6040516001600160a01b0390911681526020015b60405180910390f35b34801561018d57600080fd5b506101a161019c366004611088565b610451565b6040519015158152602001610178565b3480156101bd57600080fd5b506101646101cc366004611088565b6104b6565b3480156101dd57600080fd5b506101f16101ec366004611088565b610524565b604051610178919061117e565b34801561020a57600080fd5b5061021e6102193660046110a0565b6105fa565b005b34801561022c57600080fd5b5061024061023b366004611088565b610679565b604051610178919061122c565b61021e61025b366004611088565b610696565b34801561026c57600080fd5b5061027561076d565b604051610178919061113a565b34801561028e57600080fd5b5061024061029d366004611088565b61077c565b61021e6102b03660046110cf565b61079a565b3480156102c157600080fd5b506102406102d03660046110a0565b6107cf565b3480156102e157600080fd5b50610275610881565b3480156102f657600080fd5b5061021e61088c565b34801561030b57600080fd5b5061024061031a366004611088565b6108c2565b34801561032b57600080fd5b5061021e61033a3660046110cf565b610959565b34801561034b57600080fd5b506003546001600160a01b0316610164565b34801561036957600080fd5b5061021e6103783660046110a0565b6109fa565b34801561038957600080fd5b50610275610a39565b34801561039e57600080fd5b506102756103ad366004610f57565b610a91565b3480156103be57600080fd5b5061021e6103cd366004610f57565b610c2d565b3480156103de57600080fd5b506101a16103ed3660046110cf565b610cc8565b3480156103fe57600080fd5b5061041261040d366004611088565b610d5e565b604051908152602001610178565b34801561042c57600080fd5b5061041261043b3660046110a0565b610e00565b600061044b826104b6565b92915050565b6000805b6001548110156104ad57826001828154811061048157634e487b7160e01b600052603260045260246000fd5b9060005260206000200154141561049b5750600192915050565b806104a58161129d565b915050610455565b50600092915050565b60006104c182610451565b6105085760405162461bcd60e51b8152602060048201526013602482015272119a5b1b48191bd95cc81b9bdd08195e1a5cdd606a1b60448201526064015b60405180910390fd5b506000908152600260205260409020546001600160a01b031690565b606061052f82610451565b156105bb57600082815260026020526040808220548151634d9b373560e01b815291516001600160a01b0390911692634d9b37359260048082019391829003018186803b15801561057f57600080fd5b505afa158015610593573d6000803e3d6000fd5b505050506040513d6000823e601f3d908101601f1916820160405261044b9190810190610f73565b60405162461bcd60e51b815260206004820152600f60248201526e125b9d985b1a59081c995c5d595cdd608a1b60448201526064016104ff565b919050565b61060382610451565b156105bb5760008281526002602052604090819020549051630f43f59960e11b81526001600160a01b03838116600483015290911690631e87eb32906024015b600060405180830381600087803b15801561065d57600080fd5b505af1158015610671573d6000803e3d6000fd5b505050505050565b604080518082019091526000808252602082015261044b826108c2565b60006106a3823433610cc8565b90508015610734576004805460405163a9059cbb60e01b815233928101929092523460248301526001600160a01b03169063a9059cbb90604401602060405180830381600087803b1580156106f757600080fd5b505af115801561070b573d6000803e3d6000fd5b505050506040513d601f19601f8201168201806040525081019061072f919061106e565b505050565b60405162461bcd60e51b815260206004820152600e60248201526d155b98589b19481d1bc8199d5b9960921b60448201526064016104ff565b6060610777610a39565b905090565b604080518082019091526000808252602082015261044b82336107cf565b6003546001600160a01b031633146107c45760405162461bcd60e51b81526004016104ff906111f7565b61072f838383610959565b60408051808201909152600080825260208201526107ec83610451565b156105bb5760008381526002602052604090819020549051631ea63cf960e11b81526001600160a01b03848116600483015290911690633d4c79f290602401604080518083038186803b15801561084257600080fd5b505afa158015610856573d6000803e3d6000fd5b505050506040513d601f19601f8201168201806040525081019061087a9190611107565b9392505050565b606061077733610a91565b6003546001600160a01b031633146108b65760405162461bcd60e51b81526004016104ff906111f7565b6108c06000610e9a565b565b604080518082019091526000808252602082015260008281526002602052604090819020548151630461a46160e31b815282516001600160a01b039092169263230d230892600480840193829003018186803b15801561092157600080fd5b505afa158015610935573d6000803e3d6000fd5b505050506040513d601f19601f8201168201806040525081019061044b9190611107565b818160405161096790610eec565b9182526001600160a01b03166020820152604001604051809103906000f080158015610997573d6000803e3d6000fd5b50600084815260026020526040812080546001600160a01b0319166001600160a01b03939093169290921790915560018054808201825591527fb10e2d527612073b26eecdfd717e6a320cf44b4afac2b0732d9fcbe2b7fa0cf601929092555050565b6000828152600260205260409081902054905163198cab2d60e31b81526001600160a01b0383811660048301529091169063cc65596890602401610643565b60606001805480602002602001604051908101604052809291908181526020018280548015610a8757602002820191906000526020600020905b815481526020019060010190808311610a73575b5050505050905090565b60015460609060009067ffffffffffffffff811115610ac057634e487b7160e01b600052604160045260246000fd5b604051908082528060200260200182016040528015610ae9578160200160208202803683370190505b50905060005b600154811015610c26576002600060018381548110610b1e57634e487b7160e01b600052603260045260246000fd5b6000918252602080832091909101548352820192909252604090810190912054905162dc630b60e31b81526001600160a01b038681166004830152909116906306e318589060240160206040518083038186803b158015610b7e57600080fd5b505afa158015610b92573d6000803e3d6000fd5b505050506040513d601f19601f82011682018060405250810190610bb6919061106e565b15610c145760018181548110610bdc57634e487b7160e01b600052603260045260246000fd5b9060005260206000200154828281518110610c0757634e487b7160e01b600052603260045260246000fd5b6020026020010181815250505b80610c1e8161129d565b915050610aef565b5092915050565b6003546001600160a01b03163314610c575760405162461bcd60e51b81526004016104ff906111f7565b6001600160a01b038116610cbc5760405162461bcd60e51b815260206004820152602660248201527f4f776e61626c653a206e6577206f776e657220697320746865207a65726f206160448201526564647265737360d01b60648201526084016104ff565b610cc581610e9a565b50565b6000610cd384610451565b15610d54576000848152600260205260409081902054905163eee9239560e01b8152600481018590526001600160a01b0384811660248301529091169063eee9239590604401600060405180830381600087803b158015610d3357600080fd5b505af1158015610d47573d6000803e3d6000fd5b505050506001905061087a565b5060009392505050565b600080610d6b8333610e00565b6004805460405163a9059cbb60e01b81523392810192909252602482018390529192506001600160a01b039091169063a9059cbb90604401602060405180830381600087803b158015610dbd57600080fd5b505af1158015610dd1573d6000803e3d6000fd5b505050506040513d601f19601f82011682018060405250810190610df5919061106e565b5061044b83336109fa565b6000610e0b83610451565b156105bb576000838152600260205260409081902054905163999927df60e01b81526001600160a01b0384811660048301529091169063999927df9060240160206040518083038186803b158015610e6257600080fd5b505afa158015610e76573d6000803e3d6000fd5b505050506040513d601f19601f8201168201806040525081019061087a9190611122565b600380546001600160a01b038381166001600160a01b0319831681179093556040519116919082907f8be0079c531659141344cd1fd0a4f28419497f9722a3daafe3b4186f6b6457e090600090a35050565b610e0b806112f083390190565b805180151581146105f557600080fd5b600060408284031215610f1a578081fd5b6040516040810181811067ffffffffffffffff82111715610f3d57610f3d6112c4565b604052825181526020928301519281019290925250919050565b600060208284031215610f68578081fd5b813561087a816112da565b60006020808385031215610f85578182fd5b825167ffffffffffffffff80821115610f9c578384fd5b818501915085601f830112610faf578384fd5b815181811115610fc157610fc16112c4565b610fcf848260051b0161126c565b818152848101925083850160a0808402860187018a1015610fee578788fd5b8795505b838610156110605780828b031215611008578788fd5b611010611243565b8251815287830151611021816112da565b8189015260408381015190820152606061103c818501610ef9565b90820152608083810151908201528552600195909501949386019390810190610ff2565b509098975050505050505050565b60006020828403121561107f578081fd5b61087a82610ef9565b600060208284031215611099578081fd5b5035919050565b600080604083850312156110b2578081fd5b8235915060208301356110c4816112da565b809150509250929050565b6000806000606084860312156110e3578081fd5b833592506020840135915060408401356110fc816112da565b809150509250925092565b600060408284031215611118578081fd5b61087a8383610f09565b600060208284031215611133578081fd5b5051919050565b6020808252825182820181905260009190848201906040850190845b8181101561117257835183529284019291840191600101611156565b50909695505050505050565b602080825282518282018190526000919060409081850190868401855b828110156111ea57815180518552868101516001600160a01b03168786015285810151868601526060808201511515908601526080908101519085015260a0909301929085019060010161119b565b5091979650505050505050565b6020808252818101527f4f776e61626c653a2063616c6c6572206973206e6f7420746865206f776e6572604082015260600190565b81518152602080830151908201526040810161044b565b60405160a0810167ffffffffffffffff81118282101715611266576112666112c4565b60405290565b604051601f8201601f1916810167ffffffffffffffff81118282101715611295576112956112c4565b604052919050565b60006000198214156112bd57634e487b7160e01b81526011600452602481fd5b5060010190565b634e487b7160e01b600052604160045260246000fd5b6001600160a01b0381168114610cc557600080fdfe60806040526001600255606460055534801561001a57600080fd5b50604051610e0b380380610e0b8339810160408190526100399161006a565b6000918255600380546001600160a01b0319166001600160a01b0392909216919091179055600155426004556100a5565b6000806040838503121561007c578182fd5b825160208401519092506001600160a01b038116811461009a578182fd5b809150509250929050565b610d57806100b46000396000f3fe6080604052600436106101095760003560e01c806354f703f8116100955780639b46b2da116100645780639b46b2da14610305578063cc6559681461033d578063d5bab70c1461035d578063d602a90714610373578063eee923951461039357600080fd5b806354f703f81461026757806375d6cbdf1461027d5780637b8e889514610293578063999927df146102e557600080fd5b80632d56bbf5116100dc5780632d56bbf5146101da5780633d4c79f2146101f0578063492a42a214610210578063494c3e90146102255780634d9b37351461024557600080fd5b806306e318581461010e5780631e87eb3214610143578063230d23081461016557806326e0b25f146101b6575b600080fd5b34801561011a57600080fd5b5061012e610129366004610b7c565b6103a6565b60405190151581526020015b60405180910390f35b34801561014f57600080fd5b5061016361015e366004610b7c565b610426565b005b34801561017157600080fd5b50604080518082018252600080825260209182018190528251808401909352548252600154908201525b6040805182518152602092830151928101929092520161013a565b3480156101c257600080fd5b506101cc60005481565b60405190815260200161013a565b3480156101e657600080fd5b506101cc60045481565b3480156101fc57600080fd5b5061019b61020b366004610b7c565b610446565b34801561021c57600080fd5b506101cc61051d565b34801561023157600080fd5b506101cc610240366004610b7c565b610534565b34801561025157600080fd5b5061025a6105c1565b60405161013a9190610be0565b34801561027357600080fd5b506101cc60055481565b34801561028957600080fd5b506101cc60025481565b34801561029f57600080fd5b506102b36102ae366004610b9d565b61065a565b604080519586526001600160a01b0390941660208601529284019190915215156060830152608082015260a00161013a565b3480156102f157600080fd5b506101cc610300366004610b7c565b6106ab565b34801561031157600080fd5b50600354610325906001600160a01b031681565b6040516001600160a01b03909116815260200161013a565b34801561034957600080fd5b50610163610358366004610b7c565b610771565b34801561036957600080fd5b506101cc60015481565b34801561037f57600080fd5b5061016361038e366004610b9d565b6107ff565b6101636103a1366004610bb5565b61094e565b6000805b60065481101561041d57826001600160a01b0316600682815481106103df57634e487b7160e01b600052603260045260246000fd5b60009182526020909120600160059092020101546001600160a01b0316141561040b5750600192915050565b8061041581610cf0565b9150506103aa565b50600092915050565b600061043182610534565b9050801561044257610442816107ff565b5050565b60408051808201909152600080825260208201526000610465836103a6565b905080156104fc57600061047884610534565b90506040518060400160405280600683815481106104a657634e487b7160e01b600052603260045260246000fd5b9060005260206000209060050201600001548152602001600683815481106104de57634e487b7160e01b600052603260045260246000fd5b90600052602060002090600502016004015481525092505050919050565b60405162461bcd60e51b815260040161051490610c59565b60405180910390fd5b600060015460005461052f9190610cd9565b905090565b6000805b6006548110156105a857826001600160a01b03166006828154811061056d57634e487b7160e01b600052603260045260246000fd5b60009182526020909120600160059092020101546001600160a01b031614156105965792915050565b806105a081610cf0565b915050610538565b5060405162461bcd60e51b815260040161051490610c59565b60606006805480602002602001604051908101604052809291908181526020016000905b828210156106515760008481526020908190206040805160a08101825260058602909201805483526001808201546001600160a01b031684860152600282015492840192909252600381015460ff161515606084015260040154608083015290835290920191016105e5565b50505050905090565b6006818154811061066a57600080fd5b6000918252602090912060059091020180546001820154600283015460038401546004909401549294506001600160a01b0390911692909160ff9091169085565b6000806106b783610534565b9050600681815481106106da57634e487b7160e01b600052603260045260246000fd5b600091825260209091206003600590920201015460ff16610730576006818154811061071657634e487b7160e01b600052603260045260246000fd5b906000526020600020906005020160040154915050919050565b60405162461bcd60e51b815260206004820152601660248201527514995dd85c9908185b1c9958591e4818db185a5b595960521b6044820152606401610514565b600061077c82610534565b90506001600682815481106107a157634e487b7160e01b600052603260045260246000fd5b60009182526020822060059190910201600301805460ff19169215159290921790915560068054839081106107e657634e487b7160e01b600052603260045260246000fd5b9060005260206000209060050201600401819055505050565b60065481106108205760405162461bcd60e51b815260040161051490610c59565b6006805461083090600190610cd9565b8154811061084e57634e487b7160e01b600052603260045260246000fd5b90600052602060002090600502016006828154811061087d57634e487b7160e01b600052603260045260246000fd5b60009182526020909120825460059092020190815560018083015490820180546001600160a01b0319166001600160a01b0390921691909117905560028083015490820155600380830154908201805460ff909216151560ff19909216919091179055600491820154910155600680548061090857634e487b7160e01b600052603160045260246000fd5b6000828152602081206005600019909301928302018181556001810180546001600160a01b03191690556002810182905560038101805460ff1916905560040155905550565b61095661051d565b8211156109935760405162461bcd60e51b815260206004820152600b60248201526a115e18d95cdcc8199d5b9960aa1b6044820152606401610514565b600061099e826103a6565b905080156109df5760405162461bcd60e51b815260206004820152600e60248201526d105b1c9958591e48199d5b99195960921b6044820152606401610514565b6000600454426109ef9190610cd9565b6005546109fc9190610c9a565b610a069085610cba565b905060006040518060a00160405280868152602001856001600160a01b0316815260200142815260200160001515815260200183815250905084600154610a4d9190610c82565b600190815560068054918201815560005281517ff652222313e28459528d920b65115c16c04f3efc82aaedc97be59f3f377c0d3f60059092029182015560208201517ff652222313e28459528d920b65115c16c04f3efc82aaedc97be59f3f377c0d40820180546001600160a01b0319166001600160a01b0390921691909117905560408201517ff652222313e28459528d920b65115c16c04f3efc82aaedc97be59f3f377c0d4182015560608201517ff652222313e28459528d920b65115c16c04f3efc82aaedc97be59f3f377c0d428201805460ff19169115159190911790556080909101517ff652222313e28459528d920b65115c16c04f3efc82aaedc97be59f3f377c0d439091015550505050565b80356001600160a01b0381168114610b7757600080fd5b919050565b600060208284031215610b8d578081fd5b610b9682610b60565b9392505050565b600060208284031215610bae578081fd5b5035919050565b60008060408385031215610bc7578081fd5b82359150610bd760208401610b60565b90509250929050565b602080825282518282018190526000919060409081850190868401855b82811015610c4c57815180518552868101516001600160a01b03168786015285810151868601526060808201511515908601526080908101519085015260a09093019290850190600101610bfd565b5091979650505050505050565b6020808252600f908201526e125b9d985b1a59081c995c5d595cdd608a1b604082015260600190565b60008219821115610c9557610c95610d0b565b500190565b600082610cb557634e487b7160e01b81526012600452602481fd5b500490565b6000816000190483118215151615610cd457610cd4610d0b565b500290565b600082821015610ceb57610ceb610d0b565b500390565b6000600019821415610d0457610d04610d0b565b5060010190565b634e487b7160e01b600052601160045260246000fdfea264697066735822122093a6593b4f6cca16574473d17737f64e7cedb2f8fc8186145c848fa42a0e0ae064736f6c63430008040033a26469706673582212200a2c418abafc27d7bc8ce4e83eda0c83d6837c63612a0b35fe62ea029338b82964736f6c63430008040033",
  "linkReferences": {},
  "deployedLinkReferences": {}
}