{
  "_format": "hh-sol-artifact-1",
  "contractName": "RamaContract",
  "sourceName": "contracts/RamaContract.sol",
  "abi": [
    {
      "inputs": [
        {
          "internalType": "address",
          "name": "tokenAddress",
          "type": "address"
        }
      ],
      "stateMutability": "nonpayable",
      "type": "constructor"
    },
    {
      "anonymous": false,
      "inputs": [
        {
          "indexed": true,
          "internalType": "address",
          "name": "previousOwner",
          "type": "address"
        },
        {
          "indexed": true,
          "internalType": "address",
          "name": "newOwner",
          "type": "address"
        }
      ],
      "name": "OwnershipTransferred",
      "type": "event"
    },
    {
      "inputs": [
        {
          "internalType": "bytes32",
          "name": "filmId",
          "type": "bytes32"
        },
        {
          "internalType": "uint256",
          "name": "targetFund",
          "type": "uint256"
        },
        {
          "internalType": "address",
          "name": "filmOwner",
          "type": "address"
        }
      ],
      "name": "addFilm",
      "outputs": [],
      "stateMutability": "nonpayable",
      "type": "function"
    },
    {
      "inputs": [
        {
          "internalType": "bytes32",
          "name": "filmId",
          "type": "bytes32"
        },
        {
          "internalType": "uint256",
          "name": "targetFund",
          "type": "uint256"
        },
        {
          "internalType": "address",
          "name": "filmOwner",
          "type": "address"
        }
      ],
      "name": "addProject",
      "outputs": [],
      "stateMutability": "payable",
      "type": "function"
    },
    {
      "inputs": [
        {
          "internalType": "bytes32",
          "name": "filmId",
          "type": "bytes32"
        }
      ],
      "name": "claimProjectRewards",
      "outputs": [
        {
          "internalType": "uint256",
          "name": "",
          "type": "uint256"
        }
      ],
      "stateMutability": "nonpayable",
      "type": "function"
    },
    {
      "inputs": [
        {
          "internalType": "bytes32",
          "name": "filmId",
          "type": "bytes32"
        },
        {
          "internalType": "address",
          "name": "sender",
          "type": "address"
        }
      ],
      "name": "claimReward",
      "outputs": [
        {
          "internalType": "uint256",
          "name": "",
          "type": "uint256"
        }
      ],
      "stateMutability": "view",
      "type": "function"
    },
    {
      "inputs": [
        {
          "internalType": "bytes32",
          "name": "filmId",
          "type": "bytes32"
        }
      ],
      "name": "doesItemExist",
      "outputs": [
        {
          "internalType": "bool",
          "name": "",
          "type": "bool"
        }
      ],
      "stateMutability": "view",
      "type": "function"
    },
    {
      "inputs": [
        {
          "internalType": "bytes32",
          "name": "filmId",
          "type": "bytes32"
        },
        {
          "internalType": "uint256",
          "name": "value",
          "type": "uint256"
        },
        {
          "internalType": "address",
          "name": "sender",
          "type": "address"
        }
      ],
      "name": "fund",
      "outputs": [
        {
          "internalType": "bool",
          "name": "",
          "type": "bool"
        }
      ],
      "stateMutability": "nonpayable",
      "type": "function"
    },
    {
      "inputs": [
        {
          "internalType": "bytes32",
          "name": "filmId",
          "type": "bytes32"
        }
      ],
      "name": "fundProject",
      "outputs": [],
      "stateMutability": "payable",
      "type": "function"
    },
    {
      "inputs": [],
      "name": "getAllFilmIds",
      "outputs": [
        {
          "internalType": "bytes32[]",
          "name": "",
          "type": "bytes32[]"
        }
      ],
      "stateMutability": "view",
      "type": "function"
    },
    {
      "inputs": [],
      "name": "getAllProjectIds",
      "outputs": [
        {
          "internalType": "bytes32[]",
          "name": "",
          "type": "bytes32[]"
        }
      ],
      "stateMutability": "view",
      "type": "function"
    },
    {
      "inputs": [
        {
          "internalType": "bytes32",
          "name": "filmId",
          "type": "bytes32"
        }
      ],
      "name": "getFilm",
      "outputs": [
        {
          "internalType": "contract Film",
          "name": "",
          "type": "address"
        }
      ],
      "stateMutability": "view",
      "type": "function"
    },
    {
      "inputs": [
        {
          "internalType": "bytes32",
          "name": "filmId",
          "type": "bytes32"
        }
      ],
      "name": "getFilmFundDetails",
      "outputs": [
        {
          "components": [
            {
              "internalType": "uint256",
              "name": "targetFund",
              "type": "uint256"
            },
            {
              "internalType": "uint256",
              "name": "fundedSoFar",
              "type": "uint256"
            }
          ],
          "internalType": "struct Film.FilmFundDetails",
          "name": "",
          "type": "tuple"
        }
      ],
      "stateMutability": "view",
      "type": "function"
    },
    {
      "inputs": [
        {
          "internalType": "bytes32",
          "name": "filmId",
          "type": "bytes32"
        },
        {
          "internalType": "address",
          "name": "sender",
          "type": "address"
        }
      ],
      "name": "getFundOfUser",
      "outputs": [
        {
          "components": [
            {
              "internalType": "uint256",
              "name": "userFund",
              "type": "uint256"
            },
            {
              "internalType": "uint256",
              "name": "claimableYield",
              "type": "uint256"
            }
          ],
          "internalType": "struct Film.UserFundDetails",
          "name": "",
          "type": "tuple"
        }
      ],
      "stateMutability": "view",
      "type": "function"
    },
    {
      "inputs": [
        {
          "internalType": "bytes32",
          "name": "filmId",
          "type": "bytes32"
        }
      ],
      "name": "getFundOfUserOnAProject",
      "outputs": [
        {
          "components": [
            {
              "internalType": "uint256",
              "name": "userFund",
              "type": "uint256"
            },
            {
              "internalType": "uint256",
              "name": "claimableYield",
              "type": "uint256"
            }
          ],
          "internalType": "struct Film.UserFundDetails",
          "name": "",
          "type": "tuple"
        }
      ],
      "stateMutability": "view",
      "type": "function"
    },
    {
      "inputs": [
        {
          "internalType": "bytes32",
          "name": "filmId",
          "type": "bytes32"
        }
      ],
      "name": "getFunds",
      "outputs": [
        {
          "components": [
            {
              "internalType": "uint256",
              "name": "amount",
              "type": "uint256"
            },
            {
              "internalType": "address",
              "name": "funder",
              "type": "address"
            },
            {
              "internalType": "uint256",
              "name": "startTime",
              "type": "uint256"
            },
            {
              "internalType": "bool",
              "name": "isClaimed",
              "type": "bool"
            },
            {
              "internalType": "uint256",
              "name": "claimableYield",
              "type": "uint256"
            }
          ],
          "internalType": "struct Film.Fund[]",
          "name": "",
          "type": "tuple[]"
        }
      ],
      "stateMutability": "view",
      "type": "function"
    },
    {
      "inputs": [
        {
          "internalType": "bytes32",
          "name": "filmId",
          "type": "bytes32"
        }
      ],
      "name": "getProjectById",
      "outputs": [
        {
          "internalType": "contract Film",
          "name": "",
          "type": "address"
        }
      ],
      "stateMutability": "view",
      "type": "function"
    },
    {
      "inputs": [
        {
          "internalType": "bytes32",
          "name": "filmId",
          "type": "bytes32"
        }
      ],
      "name": "getProjectFundDetails",
      "outputs": [
        {
          "components": [
            {
              "internalType": "uint256",
              "name": "targetFund",
              "type": "uint256"
            },
            {
              "internalType": "uint256",
              "name": "fundedSoFar",
              "type": "uint256"
            }
          ],
          "internalType": "struct Film.FilmFundDetails",
          "name": "",
          "type": "tuple"
        }
      ],
      "stateMutability": "view",
      "type": "function"
    },
    {
      "inputs": [
        {
          "internalType": "address",
          "name": "sender",
          "type": "address"
        }
      ],
      "name": "getUserFundedFilmIds",
      "outputs": [
        {
          "internalType": "bytes32[]",
          "name": "",
          "type": "bytes32[]"
        }
      ],
      "stateMutability": "view",
      "type": "function"
    },
    {
      "inputs": [],
      "name": "getUserFundedProjects",
      "outputs": [
        {
          "internalType": "bytes32[]",
          "name": "",
          "type": "bytes32[]"
        }
      ],
      "stateMutability": "view",
      "type": "function"
    },
    {
      "inputs": [
        {
          "internalType": "bytes32",
          "name": "filmId",
          "type": "bytes32"
        },
        {
          "internalType": "address",
          "name": "sender",
          "type": "address"
        }
      ],
      "name": "lockFund",
      "outputs": [],
      "stateMutability": "nonpayable",
      "type": "function"
    },
    {
      "inputs": [],
      "name": "owner",
      "outputs": [
        {
          "internalType": "address",
          "name": "",
          "type": "address"
        }
      ],
      "stateMutability": "view",
      "type": "function"
    },
    {
      "inputs": [
        {
          "internalType": "bytes32",
          "name": "filmId",
          "type": "bytes32"
        },
        {
          "internalType": "address",
          "name": "sender",
          "type": "address"
        }
      ],
      "name": "removeFund",
      "outputs": [],
      "stateMutability": "nonpayable",
      "type": "function"
    },
    {
      "inputs": [],
      "name": "renounceOwnership",
      "outputs": [],
      "stateMutability": "nonpayable",
      "type": "function"
    },
    {
      "inputs": [
        {
          "internalType": "address",
          "name": "newOwner",
          "type": "address"
        }
      ],
      "name": "transferOwnership",
      "outputs": [],
      "stateMutability": "nonpayable",
      "type": "function"
    },
    {
      "inputs": [
        {
          "internalType": "bytes32",
          "name": "filmId",
          "type": "bytes32"
        },
        {
          "internalType": "address",
          "name": "sender",
          "type": "address"
        }
      ],
      "name": "withdraw",
      "outputs": [
        {
          "internalType": "uint256",
          "name": "",
          "type": "uint256"
        }
      ],
      "stateMutability": "nonpayable",
      "type": "function"
    },
    {
      "inputs": [
        {
          "internalType": "bytes32",
          "name": "filmId",
          "type": "bytes32"
        }
      ],
      "name": "withdrawFromProject",
      "outputs": [],
      "stateMutability": "payable",
      "type": "function"
    }
  ],
  "bytecode": "0x608060405234801561001057600080fd5b5060405161259838038061259883398101604081905261002f916100af565b6100383361005d565b600480546001600160a01b0319166001600160a01b03929092169190911790556100dd565b600380546001600160a01b038381166001600160a01b0319831681179093556040519116919082907f8be0079c531659141344cd1fd0a4f28419497f9722a3daafe3b4186f6b6457e090600090a35050565b6000602082840312156100c0578081fd5b81516001600160a01b03811681146100d6578182fd5b9392505050565b6124ac806100ec6000396000f3fe6080604052600436106101655760003560e01c8063641a9e9e116100d1578063c637ec901161008a578063f2fde38b11610064578063f2fde38b14610419578063f40d1f3314610439578063f71e075514610459578063f9d0ff061461047957600080fd5b8063c637ec90146103d1578063d9a9f0b6146103e6578063ebb15bbe1461040657600080fd5b8063641a9e9e14610329578063715018a61461033e5780637159550d1461035357806378143f95146103735780638da5cb5b14610393578063ab05204e146103b157600080fd5b80634a039b89116101235780634a039b89146102745780634a83b226146102a15780634ac64766146102b45780634e1e4e14146102d657806350303753146102f65780635fb56c571461030957600080fd5b80627e59c81461016a5780630745c865146101a757806313229311146101d757806316d125f1146101f75780631b258d50146102245780633d22ef3514610252575b600080fd5b34801561017657600080fd5b5061018a6101853660046111e1565b610499565b6040516001600160a01b0390911681526020015b60405180910390f35b3480156101b357600080fd5b506101c76101c23660046111e1565b6104aa565b604051901515815260200161019e565b3480156101e357600080fd5b5061018a6101f23660046111e1565b61050f565b34801561020357600080fd5b506102176102123660046111e1565b61057d565b60405161019e91906112d7565b34801561023057600080fd5b5061024461023f3660046111f9565b610653565b60405190815260200161019e565b34801561025e57600080fd5b5061027261026d3660046111f9565b6106f6565b005b34801561028057600080fd5b5061029461028f3660046111e1565b610795565b60405161019e9190611385565b6102726102af3660046111e1565b6107b2565b3480156102c057600080fd5b506102c9610884565b60405161019e9190611293565b3480156102e257600080fd5b506102946102f13660046111e1565b610893565b610272610304366004611228565b6108b1565b34801561031557600080fd5b506102946103243660046111f9565b6108e6565b34801561033557600080fd5b506102c9610991565b34801561034a57600080fd5b5061027261099c565b34801561035f57600080fd5b5061029461036e3660046111e1565b6109d2565b34801561037f57600080fd5b5061027261038e366004611228565b610a69565b34801561039f57600080fd5b506003546001600160a01b031661018a565b3480156103bd57600080fd5b506102726103cc3660046111f9565b610b0a565b3480156103dd57600080fd5b506102c9610b7a565b3480156103f257600080fd5b506102c96104013660046110b0565b610bd2565b6102726104143660046111e1565b610d6e565b34801561042557600080fd5b506102726104343660046110b0565b610daa565b34801561044557600080fd5b506101c7610454366004611228565b610e45565b34801561046557600080fd5b506102446104743660046111e1565b610edb565b34801561048557600080fd5b506102446104943660046111f9565b610f7d565b60006104a48261050f565b92915050565b6000805b6001548110156105065782600182815481106104da57634e487b7160e01b600052603260045260246000fd5b906000526020600020015414156104f45750600192915050565b806104fe816113f6565b9150506104ae565b50600092915050565b600061051a826104aa565b6105615760405162461bcd60e51b8152602060048201526013602482015272119a5b1b48191bd95cc81b9bdd08195e1a5cdd606a1b60448201526064015b60405180910390fd5b506000908152600260205260409020546001600160a01b031690565b6060610588826104aa565b1561061457600082815260026020526040808220548151634d9b373560e01b815291516001600160a01b0390911692634d9b37359260048082019391829003018186803b1580156105d857600080fd5b505afa1580156105ec573d6000803e3d6000fd5b505050506040513d6000823e601f3d908101601f191682016040526104a491908101906110cc565b60405162461bcd60e51b815260206004820152600f60248201526e125b9d985b1a59081c995c5d595cdd608a1b6044820152606401610558565b919050565b600061065e836104aa565b156106145760008381526002602052604090819020549051630f43f59960e11b81526001600160a01b03848116600483015290911690631e87eb3290602401602060405180830381600087803b1580156106b757600080fd5b505af11580156106cb573d6000803e3d6000fd5b505050506040513d601f19601f820116820180604052508101906106ef919061127b565b9392505050565b6106ff826104aa565b156106145760008281526002602052604090819020549051630f43f59960e11b81526001600160a01b03838116600483015290911690631e87eb3290602401602060405180830381600087803b15801561075857600080fd5b505af115801561076c573d6000803e3d6000fd5b505050506040513d601f19601f82011682018060405250810190610790919061127b565b505050565b60408051808201909152600080825260208201526104a4826109d2565b60006107bf823433610e45565b9050801561084b576004805460405163a9059cbb60e01b815233928101929092523460248301526001600160a01b03169063a9059cbb90604401602060405180830381600087803b15801561081357600080fd5b505af1158015610827573d6000803e3d6000fd5b505050506040513d601f19601f8201168201806040525081019061079091906111c7565b60405162461bcd60e51b815260206004820152600e60248201526d155b98589b19481d1bc8199d5b9960921b6044820152606401610558565b606061088e610b7a565b905090565b60408051808201909152600080825260208201526104a482336108e6565b6003546001600160a01b031633146108db5760405162461bcd60e51b815260040161055890611350565b610790838383610a69565b6040805180820190915260008082526020820152610903836104aa565b156106145760008381526002602052604090819020549051631ea63cf960e11b81526001600160a01b03848116600483015290911690633d4c79f290602401604080518083038186803b15801561095957600080fd5b505afa15801561096d573d6000803e3d6000fd5b505050506040513d601f19601f820116820180604052508101906106ef9190611260565b606061088e33610bd2565b6003546001600160a01b031633146109c65760405162461bcd60e51b815260040161055890611350565b6109d06000610ff3565b565b604080518082019091526000808252602082015260008281526002602052604090819020548151630461a46160e31b815282516001600160a01b039092169263230d230892600480840193829003018186803b158015610a3157600080fd5b505afa158015610a45573d6000803e3d6000fd5b505050506040513d601f19601f820116820180604052508101906104a49190611260565b8181604051610a7790611045565b9182526001600160a01b03166020820152604001604051809103906000f080158015610aa7573d6000803e3d6000fd5b50600084815260026020526040812080546001600160a01b0319166001600160a01b03939093169290921790915560018054808201825591527fb10e2d527612073b26eecdfd717e6a320cf44b4afac2b0732d9fcbe2b7fa0cf601929092555050565b6000828152600260205260409081902054905163198cab2d60e31b81526001600160a01b0383811660048301529091169063cc65596890602401600060405180830381600087803b158015610b5e57600080fd5b505af1158015610b72573d6000803e3d6000fd5b505050505050565b60606001805480602002602001604051908101604052809291908181526020018280548015610bc857602002820191906000526020600020905b815481526020019060010190808311610bb4575b5050505050905090565b60015460609060009067ffffffffffffffff811115610c0157634e487b7160e01b600052604160045260246000fd5b604051908082528060200260200182016040528015610c2a578160200160208202803683370190505b50905060005b600154811015610d67576002600060018381548110610c5f57634e487b7160e01b600052603260045260246000fd5b6000918252602080832091909101548352820192909252604090810190912054905162dc630b60e31b81526001600160a01b038681166004830152909116906306e318589060240160206040518083038186803b158015610cbf57600080fd5b505afa158015610cd3573d6000803e3d6000fd5b505050506040513d601f19601f82011682018060405250810190610cf791906111c7565b15610d555760018181548110610d1d57634e487b7160e01b600052603260045260246000fd5b9060005260206000200154828281518110610d4857634e487b7160e01b600052603260045260246000fd5b6020026020010181815250505b80610d5f816113f6565b915050610c30565b5092915050565b6000610d7a8233610653565b604051909150339082156108fc029083906000818181858888f19350505050158015610790573d6000803e3d6000fd5b6003546001600160a01b03163314610dd45760405162461bcd60e51b815260040161055890611350565b6001600160a01b038116610e395760405162461bcd60e51b815260206004820152602660248201527f4f776e61626c653a206e6577206f776e657220697320746865207a65726f206160448201526564647265737360d01b6064820152608401610558565b610e4281610ff3565b50565b6000610e50846104aa565b15610ed1576000848152600260205260409081902054905163eee9239560e01b8152600481018590526001600160a01b0384811660248301529091169063eee9239590604401600060405180830381600087803b158015610eb057600080fd5b505af1158015610ec4573d6000803e3d6000fd5b50505050600190506106ef565b5060009392505050565b600080610ee88333610f7d565b6004805460405163a9059cbb60e01b81523392810192909252602482018390529192506001600160a01b039091169063a9059cbb90604401602060405180830381600087803b158015610f3a57600080fd5b505af1158015610f4e573d6000803e3d6000fd5b505050506040513d601f19601f82011682018060405250810190610f7291906111c7565b506104a48333610b0a565b6000610f88836104aa565b15610614576000838152600260205260409081902054905163999927df60e01b81526001600160a01b0384811660048301529091169063999927df9060240160206040518083038186803b158015610fdf57600080fd5b505afa1580156106cb573d6000803e3d6000fd5b600380546001600160a01b038381166001600160a01b0319831681179093556040519116919082907f8be0079c531659141344cd1fd0a4f28419497f9722a3daafe3b4186f6b6457e090600090a35050565b61102e8061144983390190565b8051801515811461064e57600080fd5b600060408284031215611073578081fd5b6040516040810181811067ffffffffffffffff821117156110965761109661141d565b604052825181526020928301519281019290925250919050565b6000602082840312156110c1578081fd5b81356106ef81611433565b600060208083850312156110de578182fd5b825167ffffffffffffffff808211156110f5578384fd5b818501915085601f830112611108578384fd5b81518181111561111a5761111a61141d565b611128848260051b016113c5565b818152848101925083850160a0808402860187018a1015611147578788fd5b8795505b838610156111b95780828b031215611161578788fd5b61116961139c565b825181528783015161117a81611433565b81890152604083810151908201526060611195818501611052565b9082015260808381015190820152855260019590950194938601939081019061114b565b509098975050505050505050565b6000602082840312156111d8578081fd5b6106ef82611052565b6000602082840312156111f2578081fd5b5035919050565b6000806040838503121561120b578081fd5b82359150602083013561121d81611433565b809150509250929050565b60008060006060848603121561123c578081fd5b8335925060208401359150604084013561125581611433565b809150509250925092565b600060408284031215611271578081fd5b6106ef8383611062565b60006020828403121561128c578081fd5b5051919050565b6020808252825182820181905260009190848201906040850190845b818110156112cb578351835292840192918401916001016112af565b50909695505050505050565b602080825282518282018190526000919060409081850190868401855b8281101561134357815180518552868101516001600160a01b03168786015285810151868601526060808201511515908601526080908101519085015260a090930192908501906001016112f4565b5091979650505050505050565b6020808252818101527f4f776e61626c653a2063616c6c6572206973206e6f7420746865206f776e6572604082015260600190565b8151815260208083015190820152604081016104a4565b60405160a0810167ffffffffffffffff811182821017156113bf576113bf61141d565b60405290565b604051601f8201601f1916810167ffffffffffffffff811182821017156113ee576113ee61141d565b604052919050565b600060001982141561141657634e487b7160e01b81526011600452602481fd5b5060010190565b634e487b7160e01b600052604160045260246000fd5b6001600160a01b0381168114610e4257600080fdfe608060405260016002556103e860055534801561001b57600080fd5b5060405161102e38038061102e83398101604081905261003a9161006b565b6000918255600380546001600160a01b0319166001600160a01b0392909216919091179055600155426004556100a6565b6000806040838503121561007d578182fd5b825160208401519092506001600160a01b038116811461009b578182fd5b809150509250929050565b610f79806100b56000396000f3fe6080604052600436106101095760003560e01c806354f703f811610095578063999927df11610064578063999927df146103055780639b46b2da14610325578063cc6559681461035d578063d5bab70c1461037d578063eee923951461039357600080fd5b806354f703f81461026557806375d6cbdf1461027b5780637b8e8895146102915780638d37a224146102e357600080fd5b80632d56bbf5116100dc5780632d56bbf5146101d85780633d4c79f2146101ee578063492a42a21461020e578063494c3e90146102235780634d9b37351461024357600080fd5b806306e318581461010e5780631e87eb3214610143578063230d23081461017157806326e0b25f146101c2575b600080fd5b34801561011a57600080fd5b5061012e610129366004610dad565b6103a6565b60405190151581526020015b60405180910390f35b34801561014f57600080fd5b5061016361015e366004610dad565b610426565b60405190815260200161013a565b34801561017d57600080fd5b50604080518082018252600080825260209182018190528251808401909352548252600154908201525b6040805182518152602092830151928101929092520161013a565b3480156101ce57600080fd5b5061016360005481565b3480156101e457600080fd5b5061016360045481565b3480156101fa57600080fd5b506101a7610209366004610dad565b6105e5565b34801561021a57600080fd5b506101636106d5565b34801561022f57600080fd5b5061016361023e366004610dad565b6106ec565b34801561024f57600080fd5b5061025861079b565b60405161013a9190610e2b565b34801561027157600080fd5b5061016360055481565b34801561028757600080fd5b5061016360025481565b34801561029d57600080fd5b506102b16102ac366004610dc7565b610834565b604080519586526001600160a01b0390941660208601529284019190915215156060830152608082015260a00161013a565b3480156102ef57600080fd5b506103036102fe366004610e0a565b610885565b005b34801561031157600080fd5b50610163610320366004610dad565b6109dc565b34801561033157600080fd5b50600354610345906001600160a01b031681565b6040516001600160a01b03909116815260200161013a565b34801561036957600080fd5b50610303610378366004610dad565b610aa2565b34801561038957600080fd5b5061016360015481565b6103036103a1366004610ddf565b610b30565b6000805b60065481101561041d57826001600160a01b0316600682815481106103df57634e487b7160e01b600052603260045260246000fd5b60009182526020909120600160059092020101546001600160a01b0316141561040b5750600192915050565b8061041581610f12565b9150506103aa565b50600092915050565b600080610432836106ec565b90506006818154811061045557634e487b7160e01b600052603260045260246000fd5b906000526020600020906005020160000154600014156104b35760405162461bcd60e51b81526020600482015260146024820152734e6f2066756e647320746f20776974686472617760601b60448201526064015b60405180910390fd5b600681815481106104d457634e487b7160e01b600052603260045260246000fd5b600091825260209091206003600590920201015460ff1615156001141561053d5760405162461bcd60e51b815260206004820152601760248201527f52616d6120746f6b656e732061726520636c61696d656400000000000000000060448201526064016104aa565b600054600154106105885760405162461bcd60e51b81526020600482015260156024820152742334b6369034b99034b710383937b23ab1ba34b7b760591b60448201526064016104aa565b6000600682815481106105ab57634e487b7160e01b600052603260045260246000fd5b9060005260206000209060050201600001549050806001546105cd9190610efb565b6001556006546105de908390610885565b9392505050565b60408051808201909152600080825260208201526000610604836103a6565b9050801561069b576000610617846106ec565b905060405180604001604052806006838154811061064557634e487b7160e01b600052603260045260246000fd5b90600052602060002090600502016000015481526020016006838154811061067d57634e487b7160e01b600052603260045260246000fd5b90600052602060002090600502016004015481525092505050919050565b60405162461bcd60e51b815260206004820152600f60248201526e125b9d985b1a59081c995c5d595cdd608a1b60448201526064016104aa565b60006001546000546106e79190610efb565b905090565b6000805b60065481101561076057826001600160a01b03166006828154811061072557634e487b7160e01b600052603260045260246000fd5b60009182526020909120600160059092020101546001600160a01b0316141561074e5792915050565b8061075881610f12565b9150506106f0565b5060405162461bcd60e51b815260206004820152600f60248201526e125b9d985b1a59081c995c5d595cdd608a1b60448201526064016104aa565b60606006805480602002602001604051908101604052809291908181526020016000905b8282101561082b5760008481526020908190206040805160a08101825260058602909201805483526001808201546001600160a01b031684860152600282015492840192909252600381015460ff161515606084015260040154608083015290835290920191016107bf565b50505050905090565b6006818154811061084457600080fd5b6000918252602090912060059091020180546001820154600283015460038401546004909401549294506001600160a01b0390911692909160ff9091169085565b80600114156108f45760068054806108ad57634e487b7160e01b600052603160045260246000fd5b6000828152602081206005600019909301928302018181556001810180546001600160a01b03191690556002810182905560038101805460ff191690556004015590555050565b6006805461090490600190610efb565b8154811061092257634e487b7160e01b600052603260045260246000fd5b90600052602060002090600502016006838154811061095157634e487b7160e01b600052603260045260246000fd5b60009182526020909120825460059092020190815560018083015490820180546001600160a01b0319166001600160a01b0390921691909117905560028083015490820155600380830154908201805460ff909216151560ff1990921691909117905560049182015491015560068054806108ad57634e487b7160e01b600052603160045260246000fd5b6000806109e8836106ec565b905060068181548110610a0b57634e487b7160e01b600052603260045260246000fd5b600091825260209091206003600590920201015460ff16610a615760068181548110610a4757634e487b7160e01b600052603260045260246000fd5b906000526020600020906005020160040154915050919050565b60405162461bcd60e51b815260206004820152601660248201527514995dd85c9908185b1c9958591e4818db185a5b595960521b60448201526064016104aa565b6000610aad826106ec565b9050600160068281548110610ad257634e487b7160e01b600052603260045260246000fd5b60009182526020822060059190910201600301805460ff1916921515929092179091556006805483908110610b1757634e487b7160e01b600052603260045260246000fd5b9060005260206000209060050201600401819055505050565b610b386106d5565b821115610b755760405162461bcd60e51b815260206004820152600b60248201526a115e18d95cdcc8199d5b9960aa1b60448201526064016104aa565b6000610b80826103a6565b90508015610bc15760405162461bcd60e51b815260206004820152600e60248201526d105b1c9958591e48199d5b99195960921b60448201526064016104aa565b600454610177906064906000906103e8906303c2670090610be29042610efb565b610bec9190610ebc565b610bf69088610edc565b610c009088610efb565b610c0a9084610edc565b610c149190610ebc565b6103e8610c218589610edc565b610c2b9190610ebc565b610c359190610ea4565b905060006040518060a00160405280888152602001876001600160a01b0316815260200142815260200160001515815260200183815250905086600154610c7c9190610ea4565b600190815560068054918201815560005281517ff652222313e28459528d920b65115c16c04f3efc82aaedc97be59f3f377c0d3f60059092029182015560208201517ff652222313e28459528d920b65115c16c04f3efc82aaedc97be59f3f377c0d40820180546001600160a01b0319166001600160a01b0390921691909117905560408201517ff652222313e28459528d920b65115c16c04f3efc82aaedc97be59f3f377c0d4182015560608201517ff652222313e28459528d920b65115c16c04f3efc82aaedc97be59f3f377c0d428201805460ff19169115159190911790556080909101517ff652222313e28459528d920b65115c16c04f3efc82aaedc97be59f3f377c0d4390910155505050505050565b80356001600160a01b0381168114610da857600080fd5b919050565b600060208284031215610dbe578081fd5b6105de82610d91565b600060208284031215610dd8578081fd5b5035919050565b60008060408385031215610df1578081fd5b82359150610e0160208401610d91565b90509250929050565b60008060408385031215610e1c578182fd5b50508035926020909101359150565b602080825282518282018190526000919060409081850190868401855b82811015610e9757815180518552868101516001600160a01b03168786015285810151868601526060808201511515908601526080908101519085015260a09093019290850190600101610e48565b5091979650505050505050565b60008219821115610eb757610eb7610f2d565b500190565b600082610ed757634e487b7160e01b81526012600452602481fd5b500490565b6000816000190483118215151615610ef657610ef6610f2d565b500290565b600082821015610f0d57610f0d610f2d565b500390565b6000600019821415610f2657610f26610f2d565b5060010190565b634e487b7160e01b600052601160045260246000fdfea2646970667358221220576d7335c7951b52e35c278065e9cd28bfe2ed95271a51e01a982cb652f133f464736f6c63430008040033a26469706673582212201353b44405643424ba0ff6b1531a766391f5c645372d941ea0e3823154daeb9f64736f6c63430008040033",
  "linkReferences": {},
  "deployedLinkReferences": {}
}