{
  "_format": "hh-sol-artifact-1",
  "contractName": "RamaContract",
  "sourceName": "contracts/RamaContract.sol",
  "abi": [
    {
      "inputs": [
        {
          "internalType": "address",
          "name": "tokenAddress",
          "type": "address"
        }
      ],
      "stateMutability": "nonpayable",
      "type": "constructor"
    },
    {
      "anonymous": false,
      "inputs": [
        {
          "indexed": true,
          "internalType": "address",
          "name": "previousOwner",
          "type": "address"
        },
        {
          "indexed": true,
          "internalType": "address",
          "name": "newOwner",
          "type": "address"
        }
      ],
      "name": "OwnershipTransferred",
      "type": "event"
    },
    {
      "inputs": [
        {
          "internalType": "bytes32",
          "name": "filmId",
          "type": "bytes32"
        },
        {
          "internalType": "uint256",
          "name": "targetFund",
          "type": "uint256"
        },
        {
          "internalType": "address",
          "name": "filmOwner",
          "type": "address"
        }
      ],
      "name": "addFilm",
      "outputs": [],
      "stateMutability": "nonpayable",
      "type": "function"
    },
    {
      "inputs": [
        {
          "internalType": "bytes32",
          "name": "filmId",
          "type": "bytes32"
        },
        {
          "internalType": "uint256",
          "name": "targetFund",
          "type": "uint256"
        },
        {
          "internalType": "address",
          "name": "filmOwner",
          "type": "address"
        }
      ],
      "name": "addProject",
      "outputs": [],
      "stateMutability": "payable",
      "type": "function"
    },
    {
      "inputs": [
        {
          "internalType": "bytes32",
          "name": "filmId",
          "type": "bytes32"
        }
      ],
      "name": "claimProjectRewards",
      "outputs": [
        {
          "internalType": "uint256",
          "name": "",
          "type": "uint256"
        }
      ],
      "stateMutability": "nonpayable",
      "type": "function"
    },
    {
      "inputs": [
        {
          "internalType": "bytes32",
          "name": "filmId",
          "type": "bytes32"
        },
        {
          "internalType": "address",
          "name": "sender",
          "type": "address"
        }
      ],
      "name": "claimReward",
      "outputs": [
        {
          "internalType": "uint256",
          "name": "",
          "type": "uint256"
        }
      ],
      "stateMutability": "view",
      "type": "function"
    },
    {
      "inputs": [
        {
          "internalType": "bytes32",
          "name": "filmId",
          "type": "bytes32"
        }
      ],
      "name": "doesItemExist",
      "outputs": [
        {
          "internalType": "bool",
          "name": "",
          "type": "bool"
        }
      ],
      "stateMutability": "view",
      "type": "function"
    },
    {
      "inputs": [
        {
          "internalType": "bytes32",
          "name": "filmId",
          "type": "bytes32"
        },
        {
          "internalType": "uint256",
          "name": "value",
          "type": "uint256"
        },
        {
          "internalType": "address",
          "name": "sender",
          "type": "address"
        }
      ],
      "name": "fund",
      "outputs": [
        {
          "internalType": "bool",
          "name": "",
          "type": "bool"
        }
      ],
      "stateMutability": "nonpayable",
      "type": "function"
    },
    {
      "inputs": [
        {
          "internalType": "bytes32",
          "name": "filmId",
          "type": "bytes32"
        }
      ],
      "name": "fundProject",
      "outputs": [],
      "stateMutability": "payable",
      "type": "function"
    },
    {
      "inputs": [],
      "name": "getAllFilmIds",
      "outputs": [
        {
          "internalType": "bytes32[]",
          "name": "",
          "type": "bytes32[]"
        }
      ],
      "stateMutability": "view",
      "type": "function"
    },
    {
      "inputs": [],
      "name": "getAllProjectIds",
      "outputs": [
        {
          "internalType": "bytes32[]",
          "name": "",
          "type": "bytes32[]"
        }
      ],
      "stateMutability": "view",
      "type": "function"
    },
    {
      "inputs": [
        {
          "internalType": "bytes32",
          "name": "filmId",
          "type": "bytes32"
        }
      ],
      "name": "getFilm",
      "outputs": [
        {
          "internalType": "contract Film",
          "name": "",
          "type": "address"
        }
      ],
      "stateMutability": "view",
      "type": "function"
    },
    {
      "inputs": [
        {
          "internalType": "bytes32",
          "name": "filmId",
          "type": "bytes32"
        }
      ],
      "name": "getFilmFundDetails",
      "outputs": [
        {
          "components": [
            {
              "internalType": "uint256",
              "name": "targetFund",
              "type": "uint256"
            },
            {
              "internalType": "uint256",
              "name": "fundedSoFar",
              "type": "uint256"
            }
          ],
          "internalType": "struct Film.FilmFundDetails",
          "name": "",
          "type": "tuple"
        }
      ],
      "stateMutability": "view",
      "type": "function"
    },
    {
      "inputs": [
        {
          "internalType": "bytes32",
          "name": "filmId",
          "type": "bytes32"
        },
        {
          "internalType": "address",
          "name": "sender",
          "type": "address"
        }
      ],
      "name": "getFundOfUser",
      "outputs": [
        {
          "components": [
            {
              "internalType": "uint256",
              "name": "userFund",
              "type": "uint256"
            },
            {
              "internalType": "uint256",
              "name": "claimableYield",
              "type": "uint256"
            }
          ],
          "internalType": "struct Film.UserFundDetails",
          "name": "",
          "type": "tuple"
        }
      ],
      "stateMutability": "view",
      "type": "function"
    },
    {
      "inputs": [
        {
          "internalType": "bytes32",
          "name": "filmId",
          "type": "bytes32"
        }
      ],
      "name": "getFundOfUserOnAProject",
      "outputs": [
        {
          "components": [
            {
              "internalType": "uint256",
              "name": "userFund",
              "type": "uint256"
            },
            {
              "internalType": "uint256",
              "name": "claimableYield",
              "type": "uint256"
            }
          ],
          "internalType": "struct Film.UserFundDetails",
          "name": "",
          "type": "tuple"
        }
      ],
      "stateMutability": "view",
      "type": "function"
    },
    {
      "inputs": [
        {
          "internalType": "bytes32",
          "name": "filmId",
          "type": "bytes32"
        }
      ],
      "name": "getFunds",
      "outputs": [
        {
          "components": [
            {
              "internalType": "uint256",
              "name": "amount",
              "type": "uint256"
            },
            {
              "internalType": "address",
              "name": "funder",
              "type": "address"
            },
            {
              "internalType": "uint256",
              "name": "startTime",
              "type": "uint256"
            },
            {
              "internalType": "bool",
              "name": "isClaimed",
              "type": "bool"
            },
            {
              "internalType": "uint256",
              "name": "claimableYield",
              "type": "uint256"
            }
          ],
          "internalType": "struct Film.Fund[]",
          "name": "",
          "type": "tuple[]"
        }
      ],
      "stateMutability": "view",
      "type": "function"
    },
    {
      "inputs": [],
      "name": "getLatestPrice",
      "outputs": [
        {
          "internalType": "int256",
          "name": "",
          "type": "int256"
        }
      ],
      "stateMutability": "view",
      "type": "function"
    },
    {
      "inputs": [
        {
          "internalType": "bytes32",
          "name": "filmId",
          "type": "bytes32"
        }
      ],
      "name": "getProjectById",
      "outputs": [
        {
          "internalType": "contract Film",
          "name": "",
          "type": "address"
        }
      ],
      "stateMutability": "view",
      "type": "function"
    },
    {
      "inputs": [
        {
          "internalType": "bytes32",
          "name": "filmId",
          "type": "bytes32"
        }
      ],
      "name": "getProjectFundDetails",
      "outputs": [
        {
          "components": [
            {
              "internalType": "uint256",
              "name": "targetFund",
              "type": "uint256"
            },
            {
              "internalType": "uint256",
              "name": "fundedSoFar",
              "type": "uint256"
            }
          ],
          "internalType": "struct Film.FilmFundDetails",
          "name": "",
          "type": "tuple"
        }
      ],
      "stateMutability": "view",
      "type": "function"
    },
    {
      "inputs": [
        {
          "internalType": "address",
          "name": "sender",
          "type": "address"
        }
      ],
      "name": "getUserFundedFilmIds",
      "outputs": [
        {
          "internalType": "bytes32[]",
          "name": "",
          "type": "bytes32[]"
        }
      ],
      "stateMutability": "view",
      "type": "function"
    },
    {
      "inputs": [],
      "name": "getUserFundedProjects",
      "outputs": [
        {
          "internalType": "bytes32[]",
          "name": "",
          "type": "bytes32[]"
        }
      ],
      "stateMutability": "view",
      "type": "function"
    },
    {
      "inputs": [
        {
          "internalType": "bytes32",
          "name": "filmId",
          "type": "bytes32"
        },
        {
          "internalType": "address",
          "name": "sender",
          "type": "address"
        }
      ],
      "name": "lockFund",
      "outputs": [],
      "stateMutability": "nonpayable",
      "type": "function"
    },
    {
      "inputs": [],
      "name": "owner",
      "outputs": [
        {
          "internalType": "address",
          "name": "",
          "type": "address"
        }
      ],
      "stateMutability": "view",
      "type": "function"
    },
    {
      "inputs": [
        {
          "internalType": "bytes32",
          "name": "filmId",
          "type": "bytes32"
        },
        {
          "internalType": "address",
          "name": "sender",
          "type": "address"
        }
      ],
      "name": "removeFund",
      "outputs": [],
      "stateMutability": "nonpayable",
      "type": "function"
    },
    {
      "inputs": [],
      "name": "renounceOwnership",
      "outputs": [],
      "stateMutability": "nonpayable",
      "type": "function"
    },
    {
      "inputs": [
        {
          "internalType": "address",
          "name": "newOwner",
          "type": "address"
        }
      ],
      "name": "transferOwnership",
      "outputs": [],
      "stateMutability": "nonpayable",
      "type": "function"
    },
    {
      "inputs": [
        {
          "internalType": "bytes32",
          "name": "filmId",
          "type": "bytes32"
        },
        {
          "internalType": "address",
          "name": "sender",
          "type": "address"
        }
      ],
      "name": "withdraw",
      "outputs": [
        {
          "internalType": "uint256",
          "name": "",
          "type": "uint256"
        }
      ],
      "stateMutability": "nonpayable",
      "type": "function"
    },
    {
      "inputs": [
        {
          "internalType": "bytes32",
          "name": "filmId",
          "type": "bytes32"
        }
      ],
      "name": "withdrawFromProject",
      "outputs": [],
      "stateMutability": "payable",
      "type": "function"
    }
  ],
  "bytecode": "0x608060405234801561001057600080fd5b5060405161266138038061266183398101604081905261002f916100cc565b6100383361007a565b600480546001600160a01b039092166001600160a01b031992831617905560058054909116738a753747a1fa494ec906ce90e9f37563a8af630e1790556100fa565b600380546001600160a01b038381166001600160a01b0319831681179093556040519116919082907f8be0079c531659141344cd1fd0a4f28419497f9722a3daafe3b4186f6b6457e090600090a35050565b6000602082840312156100dd578081fd5b81516001600160a01b03811681146100f3578182fd5b9392505050565b612558806101096000396000f3fe6080604052600436106101805760003560e01c8063715018a6116100d1578063c637ec901161008a578063f2fde38b11610064578063f2fde38b14610449578063f40d1f3314610469578063f71e075514610489578063f9d0ff06146104a957600080fd5b8063c637ec9014610401578063d9a9f0b614610416578063ebb15bbe1461043657600080fd5b8063715018a6146103595780637159550d1461036e57806378143f951461038e5780638da5cb5b146103ae5780638e15f473146103cc578063ab05204e146103e157600080fd5b80634a039b891161013e5780634e1e4e14116101185780634e1e4e14146102f157806350303753146103115780635fb56c5714610324578063641a9e9e1461034457600080fd5b80634a039b891461028f5780634a83b226146102bc5780634ac64766146102cf57600080fd5b80627e59c8146101855780630745c865146101c257806313229311146101f257806316d125f1146102125780631b258d501461023f5780633d22ef351461026d575b600080fd5b34801561019157600080fd5b506101a56101a036600461123e565b6104c9565b6040516001600160a01b0390911681526020015b60405180910390f35b3480156101ce57600080fd5b506101e26101dd36600461123e565b6104da565b60405190151581526020016101b9565b3480156101fe57600080fd5b506101a561020d36600461123e565b61053f565b34801561021e57600080fd5b5061023261022d36600461123e565b6105ad565b6040516101b99190611383565b34801561024b57600080fd5b5061025f61025a366004611256565b610683565b6040519081526020016101b9565b34801561027957600080fd5b5061028d610288366004611256565b610726565b005b34801561029b57600080fd5b506102af6102aa36600461123e565b6107c9565b6040516101b99190611431565b61028d6102ca36600461123e565b6107e6565b3480156102db57600080fd5b506102e4610833565b6040516101b9919061133f565b3480156102fd57600080fd5b506102af61030c36600461123e565b610842565b61028d61031f366004611285565b610860565b34801561033057600080fd5b506102af61033f366004611256565b610895565b34801561035057600080fd5b506102e4610940565b34801561036557600080fd5b5061028d61094b565b34801561037a57600080fd5b506102af61038936600461123e565b610981565b34801561039a57600080fd5b5061028d6103a9366004611285565b610a18565b3480156103ba57600080fd5b506003546001600160a01b03166101a5565b3480156103d857600080fd5b5061025f610ab9565b3480156103ed57600080fd5b5061028d6103fc366004611256565b610b4d565b34801561040d57600080fd5b506102e4610bbd565b34801561042257600080fd5b506102e461043136600461110d565b610c15565b61028d61044436600461123e565b610db1565b34801561045557600080fd5b5061028d61046436600461110d565b610ded565b34801561047557600080fd5b506101e2610484366004611285565b610e88565b34801561049557600080fd5b5061025f6104a436600461123e565b610f1e565b3480156104b557600080fd5b5061025f6104c4366004611256565b610fc0565b60006104d48261053f565b92915050565b6000805b60015481101561053657826001828154811061050a57634e487b7160e01b600052603260045260246000fd5b906000526020600020015414156105245750600192915050565b8061052e816114a2565b9150506104de565b50600092915050565b600061054a826104da565b6105915760405162461bcd60e51b8152602060048201526013602482015272119a5b1b48191bd95cc81b9bdd08195e1a5cdd606a1b60448201526064015b60405180910390fd5b506000908152600260205260409020546001600160a01b031690565b60606105b8826104da565b1561064457600082815260026020526040808220548151634d9b373560e01b815291516001600160a01b0390911692634d9b37359260048082019391829003018186803b15801561060857600080fd5b505afa15801561061c573d6000803e3d6000fd5b505050506040513d6000823e601f3d908101601f191682016040526104d49190810190611129565b60405162461bcd60e51b815260206004820152600f60248201526e125b9d985b1a59081c995c5d595cdd608a1b6044820152606401610588565b919050565b600061068e836104da565b156106445760008381526002602052604090819020549051630f43f59960e11b81526001600160a01b03848116600483015290911690631e87eb3290602401602060405180830381600087803b1580156106e757600080fd5b505af11580156106fb573d6000803e3d6000fd5b505050506040513d601f19601f8201168201806040525081019061071f91906112d8565b9392505050565b61072f826104da565b156106445760008281526002602052604090819020549051630f43f59960e11b81526001600160a01b03838116600483015290911690631e87eb3290602401602060405180830381600087803b15801561078857600080fd5b505af115801561079c573d6000803e3d6000fd5b505050506040513d601f19601f820116820180604052508101906107c091906112d8565b505050565b5050565b60408051808201909152600080825260208201526104d482610981565b60006107f3823433610e88565b9050806107c55760405162461bcd60e51b815260206004820152600e60248201526d155b98589b19481d1bc8199d5b9960921b6044820152606401610588565b606061083d610bbd565b905090565b60408051808201909152600080825260208201526104d48233610895565b6003546001600160a01b0316331461088a5760405162461bcd60e51b8152600401610588906113fc565b6107c0838383610a18565b60408051808201909152600080825260208201526108b2836104da565b156106445760008381526002602052604090819020549051631ea63cf960e11b81526001600160a01b03848116600483015290911690633d4c79f290602401604080518083038186803b15801561090857600080fd5b505afa15801561091c573d6000803e3d6000fd5b505050506040513d601f19601f8201168201806040525081019061071f91906112bd565b606061083d33610c15565b6003546001600160a01b031633146109755760405162461bcd60e51b8152600401610588906113fc565b61097f6000611036565b565b604080518082019091526000808252602082015260008281526002602052604090819020548151630461a46160e31b815282516001600160a01b039092169263230d230892600480840193829003018186803b1580156109e057600080fd5b505afa1580156109f4573d6000803e3d6000fd5b505050506040513d601f19601f820116820180604052508101906104d491906112bd565b8181604051610a2690611088565b9182526001600160a01b03166020820152604001604051809103906000f080158015610a56573d6000803e3d6000fd5b50600084815260026020526040812080546001600160a01b0319166001600160a01b03939093169290921790915560018054808201825591527fb10e2d527612073b26eecdfd717e6a320cf44b4afac2b0732d9fcbe2b7fa0cf601929092555050565b600080600560009054906101000a90046001600160a01b03166001600160a01b031663feaf968c6040518163ffffffff1660e01b815260040160a06040518083038186803b158015610b0a57600080fd5b505afa158015610b1e573d6000803e3d6000fd5b505050506040513d601f19601f82011682018060405250810190610b4291906112f0565b509195945050505050565b6000828152600260205260409081902054905163198cab2d60e31b81526001600160a01b0383811660048301529091169063cc65596890602401600060405180830381600087803b158015610ba157600080fd5b505af1158015610bb5573d6000803e3d6000fd5b505050505050565b60606001805480602002602001604051908101604052809291908181526020018280548015610c0b57602002820191906000526020600020905b815481526020019060010190808311610bf7575b5050505050905090565b60015460609060009067ffffffffffffffff811115610c4457634e487b7160e01b600052604160045260246000fd5b604051908082528060200260200182016040528015610c6d578160200160208202803683370190505b50905060005b600154811015610daa576002600060018381548110610ca257634e487b7160e01b600052603260045260246000fd5b6000918252602080832091909101548352820192909252604090810190912054905162dc630b60e31b81526001600160a01b038681166004830152909116906306e318589060240160206040518083038186803b158015610d0257600080fd5b505afa158015610d16573d6000803e3d6000fd5b505050506040513d601f19601f82011682018060405250810190610d3a9190611224565b15610d985760018181548110610d6057634e487b7160e01b600052603260045260246000fd5b9060005260206000200154828281518110610d8b57634e487b7160e01b600052603260045260246000fd5b6020026020010181815250505b80610da2816114a2565b915050610c73565b5092915050565b6000610dbd8233610683565b604051909150339082156108fc029083906000818181858888f193505050501580156107c0573d6000803e3d6000fd5b6003546001600160a01b03163314610e175760405162461bcd60e51b8152600401610588906113fc565b6001600160a01b038116610e7c5760405162461bcd60e51b815260206004820152602660248201527f4f776e61626c653a206e6577206f776e657220697320746865207a65726f206160448201526564647265737360d01b6064820152608401610588565b610e8581611036565b50565b6000610e93846104da565b15610f14576000848152600260205260409081902054905163eee9239560e01b8152600481018590526001600160a01b0384811660248301529091169063eee9239590604401600060405180830381600087803b158015610ef357600080fd5b505af1158015610f07573d6000803e3d6000fd5b505050506001905061071f565b5060009392505050565b600080610f2b8333610fc0565b6004805460405163a9059cbb60e01b81523392810192909252602482018390529192506001600160a01b039091169063a9059cbb90604401602060405180830381600087803b158015610f7d57600080fd5b505af1158015610f91573d6000803e3d6000fd5b505050506040513d601f19601f82011682018060405250810190610fb59190611224565b506104d48333610b4d565b6000610fcb836104da565b15610644576000838152600260205260409081902054905163999927df60e01b81526001600160a01b0384811660048301529091169063999927df9060240160206040518083038186803b15801561102257600080fd5b505afa1580156106fb573d6000803e3d6000fd5b600380546001600160a01b038381166001600160a01b0319831681179093556040519116919082907f8be0079c531659141344cd1fd0a4f28419497f9722a3daafe3b4186f6b6457e090600090a35050565b61102e806114f583390190565b8051801515811461067e57600080fd5b6000604082840312156110b6578081fd5b6040516040810181811067ffffffffffffffff821117156110d9576110d96114c9565b604052825181526020928301519281019290925250919050565b805169ffffffffffffffffffff8116811461067e57600080fd5b60006020828403121561111e578081fd5b813561071f816114df565b6000602080838503121561113b578182fd5b825167ffffffffffffffff80821115611152578384fd5b818501915085601f830112611165578384fd5b815181811115611177576111776114c9565b611185848260051b01611471565b818152848101925083850160a0808402860187018a10156111a4578788fd5b8795505b838610156112165780828b0312156111be578788fd5b6111c6611448565b82518152878301516111d7816114df565b818901526040838101519082015260606111f2818501611095565b908201526080838101519082015285526001959095019493860193908101906111a8565b509098975050505050505050565b600060208284031215611235578081fd5b61071f82611095565b60006020828403121561124f578081fd5b5035919050565b60008060408385031215611268578081fd5b82359150602083013561127a816114df565b809150509250929050565b600080600060608486031215611299578081fd5b833592506020840135915060408401356112b2816114df565b809150509250925092565b6000604082840312156112ce578081fd5b61071f83836110a5565b6000602082840312156112e9578081fd5b5051919050565b600080600080600060a08688031215611307578081fd5b611310866110f3565b9450602086015193506040860151925060608601519150611333608087016110f3565b90509295509295909350565b6020808252825182820181905260009190848201906040850190845b818110156113775783518352928401929184019160010161135b565b50909695505050505050565b602080825282518282018190526000919060409081850190868401855b828110156113ef57815180518552868101516001600160a01b03168786015285810151868601526060808201511515908601526080908101519085015260a090930192908501906001016113a0565b5091979650505050505050565b6020808252818101527f4f776e61626c653a2063616c6c6572206973206e6f7420746865206f776e6572604082015260600190565b8151815260208083015190820152604081016104d4565b60405160a0810167ffffffffffffffff8111828210171561146b5761146b6114c9565b60405290565b604051601f8201601f1916810167ffffffffffffffff8111828210171561149a5761149a6114c9565b604052919050565b60006000198214156114c257634e487b7160e01b81526011600452602481fd5b5060010190565b634e487b7160e01b600052604160045260246000fd5b6001600160a01b0381168114610e8557600080fdfe608060405260016002556103e860055534801561001b57600080fd5b5060405161102e38038061102e83398101604081905261003a9161006b565b6000918255600380546001600160a01b0319166001600160a01b0392909216919091179055600155426004556100a6565b6000806040838503121561007d578182fd5b825160208401519092506001600160a01b038116811461009b578182fd5b809150509250929050565b610f79806100b56000396000f3fe6080604052600436106101095760003560e01c806354f703f811610095578063999927df11610064578063999927df146103055780639b46b2da14610325578063cc6559681461035d578063d5bab70c1461037d578063eee923951461039357600080fd5b806354f703f81461026557806375d6cbdf1461027b5780637b8e8895146102915780638d37a224146102e357600080fd5b80632d56bbf5116100dc5780632d56bbf5146101d85780633d4c79f2146101ee578063492a42a21461020e578063494c3e90146102235780634d9b37351461024357600080fd5b806306e318581461010e5780631e87eb3214610143578063230d23081461017157806326e0b25f146101c2575b600080fd5b34801561011a57600080fd5b5061012e610129366004610dad565b6103a6565b60405190151581526020015b60405180910390f35b34801561014f57600080fd5b5061016361015e366004610dad565b610426565b60405190815260200161013a565b34801561017d57600080fd5b50604080518082018252600080825260209182018190528251808401909352548252600154908201525b6040805182518152602092830151928101929092520161013a565b3480156101ce57600080fd5b5061016360005481565b3480156101e457600080fd5b5061016360045481565b3480156101fa57600080fd5b506101a7610209366004610dad565b6105e5565b34801561021a57600080fd5b506101636106d5565b34801561022f57600080fd5b5061016361023e366004610dad565b6106ec565b34801561024f57600080fd5b5061025861079b565b60405161013a9190610e2b565b34801561027157600080fd5b5061016360055481565b34801561028757600080fd5b5061016360025481565b34801561029d57600080fd5b506102b16102ac366004610dc7565b610834565b604080519586526001600160a01b0390941660208601529284019190915215156060830152608082015260a00161013a565b3480156102ef57600080fd5b506103036102fe366004610e0a565b610885565b005b34801561031157600080fd5b50610163610320366004610dad565b6109dc565b34801561033157600080fd5b50600354610345906001600160a01b031681565b6040516001600160a01b03909116815260200161013a565b34801561036957600080fd5b50610303610378366004610dad565b610aa2565b34801561038957600080fd5b5061016360015481565b6103036103a1366004610ddf565b610b30565b6000805b60065481101561041d57826001600160a01b0316600682815481106103df57634e487b7160e01b600052603260045260246000fd5b60009182526020909120600160059092020101546001600160a01b0316141561040b5750600192915050565b8061041581610f12565b9150506103aa565b50600092915050565b600080610432836106ec565b90506006818154811061045557634e487b7160e01b600052603260045260246000fd5b906000526020600020906005020160000154600014156104b35760405162461bcd60e51b81526020600482015260146024820152734e6f2066756e647320746f20776974686472617760601b60448201526064015b60405180910390fd5b600681815481106104d457634e487b7160e01b600052603260045260246000fd5b600091825260209091206003600590920201015460ff1615156001141561053d5760405162461bcd60e51b815260206004820152601760248201527f52616d6120746f6b656e732061726520636c61696d656400000000000000000060448201526064016104aa565b600054600154106105885760405162461bcd60e51b81526020600482015260156024820152742334b6369034b99034b710383937b23ab1ba34b7b760591b60448201526064016104aa565b6000600682815481106105ab57634e487b7160e01b600052603260045260246000fd5b9060005260206000209060050201600001549050806001546105cd9190610efb565b6001556006546105de908390610885565b9392505050565b60408051808201909152600080825260208201526000610604836103a6565b9050801561069b576000610617846106ec565b905060405180604001604052806006838154811061064557634e487b7160e01b600052603260045260246000fd5b90600052602060002090600502016000015481526020016006838154811061067d57634e487b7160e01b600052603260045260246000fd5b90600052602060002090600502016004015481525092505050919050565b60405162461bcd60e51b815260206004820152600f60248201526e125b9d985b1a59081c995c5d595cdd608a1b60448201526064016104aa565b60006001546000546106e79190610efb565b905090565b6000805b60065481101561076057826001600160a01b03166006828154811061072557634e487b7160e01b600052603260045260246000fd5b60009182526020909120600160059092020101546001600160a01b0316141561074e5792915050565b8061075881610f12565b9150506106f0565b5060405162461bcd60e51b815260206004820152600f60248201526e125b9d985b1a59081c995c5d595cdd608a1b60448201526064016104aa565b60606006805480602002602001604051908101604052809291908181526020016000905b8282101561082b5760008481526020908190206040805160a08101825260058602909201805483526001808201546001600160a01b031684860152600282015492840192909252600381015460ff161515606084015260040154608083015290835290920191016107bf565b50505050905090565b6006818154811061084457600080fd5b6000918252602090912060059091020180546001820154600283015460038401546004909401549294506001600160a01b0390911692909160ff9091169085565b80600114156108f45760068054806108ad57634e487b7160e01b600052603160045260246000fd5b6000828152602081206005600019909301928302018181556001810180546001600160a01b03191690556002810182905560038101805460ff191690556004015590555050565b6006805461090490600190610efb565b8154811061092257634e487b7160e01b600052603260045260246000fd5b90600052602060002090600502016006838154811061095157634e487b7160e01b600052603260045260246000fd5b60009182526020909120825460059092020190815560018083015490820180546001600160a01b0319166001600160a01b0390921691909117905560028083015490820155600380830154908201805460ff909216151560ff1990921691909117905560049182015491015560068054806108ad57634e487b7160e01b600052603160045260246000fd5b6000806109e8836106ec565b905060068181548110610a0b57634e487b7160e01b600052603260045260246000fd5b600091825260209091206003600590920201015460ff16610a615760068181548110610a4757634e487b7160e01b600052603260045260246000fd5b906000526020600020906005020160040154915050919050565b60405162461bcd60e51b815260206004820152601660248201527514995dd85c9908185b1c9958591e4818db185a5b595960521b60448201526064016104aa565b6000610aad826106ec565b9050600160068281548110610ad257634e487b7160e01b600052603260045260246000fd5b60009182526020822060059190910201600301805460ff1916921515929092179091556006805483908110610b1757634e487b7160e01b600052603260045260246000fd5b9060005260206000209060050201600401819055505050565b610b386106d5565b821115610b755760405162461bcd60e51b815260206004820152600b60248201526a115e18d95cdcc8199d5b9960aa1b60448201526064016104aa565b6000610b80826103a6565b90508015610bc15760405162461bcd60e51b815260206004820152600e60248201526d105b1c9958591e48199d5b99195960921b60448201526064016104aa565b600454610177906064906000906103e8906303c2670090610be29042610efb565b610bec9190610ebc565b610bf69088610edc565b610c009088610efb565b610c0a9084610edc565b610c149190610ebc565b6103e8610c218589610edc565b610c2b9190610ebc565b610c359190610ea4565b905060006040518060a00160405280888152602001876001600160a01b0316815260200142815260200160001515815260200183815250905086600154610c7c9190610ea4565b600190815560068054918201815560005281517ff652222313e28459528d920b65115c16c04f3efc82aaedc97be59f3f377c0d3f60059092029182015560208201517ff652222313e28459528d920b65115c16c04f3efc82aaedc97be59f3f377c0d40820180546001600160a01b0319166001600160a01b0390921691909117905560408201517ff652222313e28459528d920b65115c16c04f3efc82aaedc97be59f3f377c0d4182015560608201517ff652222313e28459528d920b65115c16c04f3efc82aaedc97be59f3f377c0d428201805460ff19169115159190911790556080909101517ff652222313e28459528d920b65115c16c04f3efc82aaedc97be59f3f377c0d4390910155505050505050565b80356001600160a01b0381168114610da857600080fd5b919050565b600060208284031215610dbe578081fd5b6105de82610d91565b600060208284031215610dd8578081fd5b5035919050565b60008060408385031215610df1578081fd5b82359150610e0160208401610d91565b90509250929050565b60008060408385031215610e1c578182fd5b50508035926020909101359150565b602080825282518282018190526000919060409081850190868401855b82811015610e9757815180518552868101516001600160a01b03168786015285810151868601526060808201511515908601526080908101519085015260a09093019290850190600101610e48565b5091979650505050505050565b60008219821115610eb757610eb7610f2d565b500190565b600082610ed757634e487b7160e01b81526012600452602481fd5b500490565b6000816000190483118215151615610ef657610ef6610f2d565b500290565b600082821015610f0d57610f0d610f2d565b500390565b6000600019821415610f2657610f26610f2d565b5060010190565b634e487b7160e01b600052601160045260246000fdfea2646970667358221220576d7335c7951b52e35c278065e9cd28bfe2ed95271a51e01a982cb652f133f464736f6c63430008040033a2646970667358221220b5d746b2ead117f93690f7595cc1cc2383c116a031dbe69cd6c39184505ecd8964736f6c63430008040033",
  "linkReferences": {},
  "deployedLinkReferences": {}
}